{"abi":[{"inputs":[{"internalType":"string","name":"_productName","type":"string"},{"internalType":"uint256","name":"_productPrice","type":"uint256"}],"stateMutability":"nonpayable","type":"constructor","name":"constructor"},{"inputs":[],"name":"approveReception","outputs":[{"internalType":"bool","name":"","type":"bool"}],"stateMutability":"nonpayable","type":"function"},{"inputs":[],"name":"approveReturn","outputs":[{"internalType":"bool","name":"","type":"bool"}],"stateMutability":"nonpayable","type":"function"},{"inputs":[],"name":"buyProduct","outputs":[],"stateMutability":"payable","type":"function"},{"inputs":[],"name":"buyer","outputs":[{"internalType":"address","name":"","type":"address"}],"stateMutability":"view","type":"function"},{"inputs":[],"name":"contractBalance","outputs":[{"internalType":"uint256","name":"","type":"uint256"}],"stateMutability":"view","type":"function"},{"inputs":[],"name":"getState","outputs":[{"internalType":"enum ProductTrade.TXN_STATE","name":"","type":"uint8"}],"stateMutability":"view","type":"function"},{"inputs":[],"name":"owner","outputs":[{"internalType":"address","name":"","type":"address"}],"stateMutability":"view","type":"function"},{"inputs":[],"name":"productName","outputs":[{"internalType":"string","name":"","type":"string"}],"stateMutability":"view","type":"function"},{"inputs":[],"name":"productPrice","outputs":[{"internalType":"uint256","name":"","type":"uint256"}],"stateMutability":"view","type":"function"},{"inputs":[],"name":"receptionApproved","outputs":[{"internalType":"bool","name":"","type":"bool"}],"stateMutability":"view","type":"function"},{"inputs":[],"name":"returnApproved","outputs":[{"internalType":"bool","name":"","type":"bool"}],"stateMutability":"view","type":"function"},{"inputs":[],"name":"startReturn","outputs":[],"stateMutability":"payable","type":"function"},{"inputs":[],"name":"txn_state","outputs":[{"internalType":"enum ProductTrade.TXN_STATE","name":"","type":"uint8"}],"stateMutability":"view","type":"function"},{"inputs":[],"name":"withdraw","outputs":[{"internalType":"bool","name":"","type":"bool"}],"stateMutability":"nonpayable","type":"function"}],"bytecode":"60806040523480156200001157600080fd5b5060405162000a5938038062000a5983398101604081905262000034916200012e565b81516200004990600290602085019062000072565b5060035550600080546001600160a01b031916331790556005805462ff0000191690556200024f565b828054620000809062000213565b90600052602060002090601f016020900481019282620000a45760008555620000ef565b82601f10620000bf57805160ff1916838001178555620000ef565b82800160010185558215620000ef579182015b82811115620000ef578251825591602001919060010190620000d2565b50620000fd92915062000101565b5090565b5b80821115620000fd576000815560010162000102565b634e487b7160e01b600052604160045260246000fd5b600080604083850312156200014257600080fd5b82516001600160401b03808211156200015a57600080fd5b818501915085601f8301126200016f57600080fd5b81518181111562000184576200018462000118565b604051601f8201601f19908116603f01168101908382118183101715620001af57620001af62000118565b81604052828152602093508884848701011115620001cc57600080fd5b600091505b82821015620001f05784820184015181830185015290830190620001d1565b82821115620002025760008484830101525b969092015195979596505050505050565b600181811c908216806200022857607f821691505b6020821081036200024957634e487b7160e01b600052602260045260246000fd5b50919050565b6107fa806200025f6000396000f3fe6080604052600436106100dd5760003560e01c80638da5cb5b1161007f5780639ada9b7b116100595780639ada9b7b1461023f578063ad70c2ef14610249578063c719642a1461025e578063d9188a4a1461026657600080fd5b80638da5cb5b146101e95780639497d3ae1461020957806394bf5a981461021f57600080fd5b80637150d8ae116100bb5780637150d8ae1461014c5780637f7650eb146101845780638b7afe2e146101a65780638d1ce630146101ca57600080fd5b80631865c57d146100e25780633ccfd60b146101125780635a9b9ed814610137575b600080fd5b3480156100ee57600080fd5b5060055462010000900460ff165b60405161010991906106e7565b60405180910390f35b34801561011e57600080fd5b50610127610280565b6040519015158152602001610109565b34801561014357600080fd5b50610127610345565b34801561015857600080fd5b5060015461016c906001600160a01b031681565b6040516001600160a01b039091168152602001610109565b34801561019057600080fd5b50610199610409565b604051610109919061070f565b3480156101b257600080fd5b506101bc60045481565b604051908152602001610109565b3480156101d657600080fd5b5060055461012790610100900460ff1681565b3480156101f557600080fd5b5060005461016c906001600160a01b031681565b34801561021557600080fd5b506101bc60035481565b34801561022b57600080fd5b506005546100fc9062010000900460ff1681565b610247610497565b005b34801561025557600080fd5b506101276105b9565b610247610679565b34801561027257600080fd5b506005546101279060ff1681565b600554600090610100900460ff1680156102a457506001546001600160a01b031633145b156102f25760405133904780156108fc02916000818181858888f193505050501580156102d5573d6000803e3d6000fd5b505060006004556005805462ff0000191662030000179055600190565b60055460ff16801561030e57506000546001600160a01b031633145b1561033f5760405133904780156108fc02916000818181858888f193505050501580156102d5573d6000803e3d6000fd5b50600090565b6000600160055462010000900460ff166003811115610366576103666106d1565b1461037057600080fd5b6001546001600160a01b031633146103f55760405162461bcd60e51b815260206004820152603860248201527f4f6e6c79207468652062757965722063616e20617070726f766520746865207260448201527f6563657074696f6e206f66207468652070726f647563742e000000000000000060648201526084015b60405180910390fd5b506005805460ff1916600190811790915590565b6002805461041690610764565b80601f016020809104026020016040519081016040528092919081815260200182805461044290610764565b801561048f5780601f106104645761010080835404028352916020019161048f565b820191906000526020600020905b81548152906001019060200180831161047257829003601f168201915b505050505081565b600060055462010000900460ff1660038111156104b6576104b66106d1565b146105035760405162461bcd60e51b815260206004820152601860248201527f4974656d206973206e6f7420757020666f722073616c652e000000000000000060448201526064016103ec565b6003543410156105725760405162461bcd60e51b815260206004820152603460248201527f5472616e73616374696f6e2076616c756520746f6f206c6f7720666f722070756044820152733931b430b9b29037b3103a3434b99034ba32b69760611b60648201526084016103ec565b600180546001600160a01b031916331790556004805434919060009061059990849061079e565b9091555050600580546001919062ff0000191662010000835b0217905550565b6000600260055462010000900460ff1660038111156105da576105da6106d1565b146105e457600080fd5b6000546001600160a01b0316331461065d5760405162461bcd60e51b815260206004820152603660248201527f4f6e6c79207468652073656c6c65722063616e20617070726f766520746865206044820152753932ba3ab9371037b3103a343290383937b23ab1ba1760511b60648201526084016103ec565b506005805461ff00191661010090811791829055900460ff1690565b6001546001600160a01b0316331461069057600080fd5b600160055462010000900460ff1660038111156106af576106af6106d1565b146106b957600080fd5b600580546002919062ff0000191662010000836105b2565b634e487b7160e01b600052602160045260246000fd5b602081016004831061070957634e487b7160e01b600052602160045260246000fd5b91905290565b600060208083528351808285015260005b8181101561073c57858101830151858201604001528201610720565b8181111561074e576000604083870101525b50601f01601f1916929092016040019392505050565b600181811c9082168061077857607f821691505b60208210810361079857634e487b7160e01b600052602260045260246000fd5b50919050565b600082198211156107bf57634e487b7160e01b600052601160045260246000fd5b50019056fea2646970667358221220ccef03e5b57e67823d96522c5213ea4fadb2b2814c169e7390627871c28f72bd64736f6c634300080e0033","bytecodeSha1":"87ce4f85ec61b736d4a8215946c39c200651b164","compiler":{"evm_version":"istanbul","optimizer":{"enabled":true,"runs":200},"version":"0.8.14+commit.80d49f37"},"contractName":"ProductTrade","language":"Solidity","natspec":{"kind":"dev","methods":{},"version":1},"opcodes":"PUSH1 0x80 PUSH1 0x40 MSTORE PUSH1 0x4 CALLDATASIZE LT PUSH2 0xDD JUMPI PUSH1 0x0 CALLDATALOAD PUSH1 0xE0 SHR DUP1 PUSH4 0x8DA5CB5B GT PUSH2 0x7F JUMPI DUP1 PUSH4 0x9ADA9B7B GT PUSH2 0x59 JUMPI DUP1 PUSH4 0x9ADA9B7B EQ PUSH2 0x23F JUMPI DUP1 PUSH4 0xAD70C2EF EQ PUSH2 0x249 JUMPI DUP1 PUSH4 0xC719642A EQ PUSH2 0x25E JUMPI DUP1 PUSH4 0xD9188A4A EQ PUSH2 0x266 JUMPI PUSH1 0x0 DUP1 REVERT JUMPDEST DUP1 PUSH4 0x8DA5CB5B EQ PUSH2 0x1E9 JUMPI DUP1 PUSH4 0x9497D3AE EQ PUSH2 0x209 JUMPI DUP1 PUSH4 0x94BF5A98 EQ PUSH2 0x21F JUMPI PUSH1 0x0 DUP1 REVERT JUMPDEST DUP1 PUSH4 0x7150D8AE GT PUSH2 0xBB JUMPI DUP1 PUSH4 0x7150D8AE EQ PUSH2 0x14C JUMPI DUP1 PUSH4 0x7F7650EB EQ PUSH2 0x184 JUMPI DUP1 PUSH4 0x8B7AFE2E EQ PUSH2 0x1A6 JUMPI DUP1 PUSH4 0x8D1CE630 EQ PUSH2 0x1CA JUMPI PUSH1 0x0 DUP1 REVERT JUMPDEST DUP1 PUSH4 0x1865C57D EQ PUSH2 0xE2 JUMPI DUP1 PUSH4 0x3CCFD60B EQ PUSH2 0x112 JUMPI DUP1 PUSH4 0x5A9B9ED8 EQ PUSH2 0x137 JUMPI JUMPDEST PUSH1 0x0 DUP1 REVERT JUMPDEST CALLVALUE DUP1 ISZERO PUSH2 0xEE JUMPI PUSH1 0x0 DUP1 REVERT JUMPDEST POP PUSH1 0x5 SLOAD PUSH3 0x10000 SWAP1 DIV PUSH1 0xFF AND JUMPDEST PUSH1 0x40 MLOAD PUSH2 0x109 SWAP2 SWAP1 PUSH2 0x6E7 JUMP JUMPDEST PUSH1 0x40 MLOAD DUP1 SWAP2 SUB SWAP1 RETURN JUMPDEST CALLVALUE DUP1 ISZERO PUSH2 0x11E JUMPI PUSH1 0x0 DUP1 REVERT JUMPDEST POP PUSH2 0x127 PUSH2 0x280 JUMP JUMPDEST PUSH1 0x40 MLOAD SWAP1 ISZERO ISZERO DUP2 MSTORE PUSH1 0x20 ADD PUSH2 0x109 JUMP JUMPDEST CALLVALUE DUP1 ISZERO PUSH2 0x143 JUMPI PUSH1 0x0 DUP1 REVERT JUMPDEST POP PUSH2 0x127 PUSH2 0x345 JUMP JUMPDEST CALLVALUE DUP1 ISZERO PUSH2 0x158 JUMPI PUSH1 0x0 DUP1 REVERT JUMPDEST POP PUSH1 0x1 SLOAD PUSH2 0x16C SWAP1 PUSH1 0x1 PUSH1 0x1 PUSH1 0xA0 SHL SUB AND DUP2 JUMP JUMPDEST PUSH1 0x40 MLOAD PUSH1 0x1 PUSH1 0x1 PUSH1 0xA0 SHL SUB SWAP1 SWAP2 AND DUP2 MSTORE PUSH1 0x20 ADD PUSH2 0x109 JUMP JUMPDEST CALLVALUE DUP1 ISZERO PUSH2 0x190 JUMPI PUSH1 0x0 DUP1 REVERT JUMPDEST POP PUSH2 0x199 PUSH2 0x409 JUMP JUMPDEST PUSH1 0x40 MLOAD PUSH2 0x109 SWAP2 SWAP1 PUSH2 0x70F JUMP JUMPDEST CALLVALUE DUP1 ISZERO PUSH2 0x1B2 JUMPI PUSH1 0x0 DUP1 REVERT JUMPDEST POP PUSH2 0x1BC PUSH1 0x4 SLOAD DUP2 JUMP JUMPDEST PUSH1 0x40 MLOAD SWAP1 DUP2 MSTORE PUSH1 0x20 ADD PUSH2 0x109 JUMP JUMPDEST CALLVALUE DUP1 ISZERO PUSH2 0x1D6 JUMPI PUSH1 0x0 DUP1 REVERT JUMPDEST POP PUSH1 0x5 SLOAD PUSH2 0x127 SWAP1 PUSH2 0x100 SWAP1 DIV PUSH1 0xFF AND DUP2 JUMP JUMPDEST CALLVALUE DUP1 ISZERO PUSH2 0x1F5 JUMPI PUSH1 0x0 DUP1 REVERT JUMPDEST POP PUSH1 0x0 SLOAD PUSH2 0x16C SWAP1 PUSH1 0x1 PUSH1 0x1 PUSH1 0xA0 SHL SUB AND DUP2 JUMP JUMPDEST CALLVALUE DUP1 ISZERO PUSH2 0x215 JUMPI PUSH1 0x0 DUP1 REVERT JUMPDEST POP PUSH2 0x1BC PUSH1 0x3 SLOAD DUP2 JUMP JUMPDEST CALLVALUE DUP1 ISZERO PUSH2 0x22B JUMPI PUSH1 0x0 DUP1 REVERT JUMPDEST POP PUSH1 0x5 SLOAD PUSH2 0xFC SWAP1 PUSH3 0x10000 SWAP1 DIV PUSH1 0xFF AND DUP2 JUMP JUMPDEST PUSH2 0x247 PUSH2 0x497 JUMP JUMPDEST STOP JUMPDEST CALLVALUE DUP1 ISZERO PUSH2 0x255 JUMPI PUSH1 0x0 DUP1 REVERT JUMPDEST POP PUSH2 0x127 PUSH2 0x5B9 JUMP JUMPDEST PUSH2 0x247 PUSH2 0x679 JUMP JUMPDEST CALLVALUE DUP1 ISZERO PUSH2 0x272 JUMPI PUSH1 0x0 DUP1 REVERT JUMPDEST POP PUSH1 0x5 SLOAD PUSH2 0x127 SWAP1 PUSH1 0xFF AND DUP2 JUMP JUMPDEST PUSH1 0x5 SLOAD PUSH1 0x0 SWAP1 PUSH2 0x100 SWAP1 DIV PUSH1 0xFF AND DUP1 ISZERO PUSH2 0x2A4 JUMPI POP PUSH1 0x1 SLOAD PUSH1 0x1 PUSH1 0x1 PUSH1 0xA0 SHL SUB AND CALLER EQ JUMPDEST ISZERO PUSH2 0x2F2 JUMPI PUSH1 0x40 MLOAD CALLER SWAP1 SELFBALANCE DUP1 ISZERO PUSH2 0x8FC MUL SWAP2 PUSH1 0x0 DUP2 DUP2 DUP2 DUP6 DUP9 DUP9 CALL SWAP4 POP POP POP POP ISZERO DUP1 ISZERO PUSH2 0x2D5 JUMPI RETURNDATASIZE PUSH1 0x0 DUP1 RETURNDATACOPY RETURNDATASIZE PUSH1 0x0 REVERT JUMPDEST POP POP PUSH1 0x0 PUSH1 0x4 SSTORE PUSH1 0x5 DUP1 SLOAD PUSH3 0xFF0000 NOT AND PUSH3 0x30000 OR SWAP1 SSTORE PUSH1 0x1 SWAP1 JUMP JUMPDEST PUSH1 0x5 SLOAD PUSH1 0xFF AND DUP1 ISZERO PUSH2 0x30E JUMPI POP PUSH1 0x0 SLOAD PUSH1 0x1 PUSH1 0x1 PUSH1 0xA0 SHL SUB AND CALLER EQ JUMPDEST ISZERO PUSH2 0x33F JUMPI PUSH1 0x40 MLOAD CALLER SWAP1 SELFBALANCE DUP1 ISZERO PUSH2 0x8FC MUL SWAP2 PUSH1 0x0 DUP2 DUP2 DUP2 DUP6 DUP9 DUP9 CALL SWAP4 POP POP POP POP ISZERO DUP1 ISZERO PUSH2 0x2D5 JUMPI RETURNDATASIZE PUSH1 0x0 DUP1 RETURNDATACOPY RETURNDATASIZE PUSH1 0x0 REVERT JUMPDEST POP PUSH1 0x0 SWAP1 JUMP JUMPDEST PUSH1 0x0 PUSH1 0x1 PUSH1 0x5 SLOAD PUSH3 0x10000 SWAP1 DIV PUSH1 0xFF AND PUSH1 0x3 DUP2 GT ISZERO PUSH2 0x366 JUMPI PUSH2 0x366 PUSH2 0x6D1 JUMP JUMPDEST EQ PUSH2 0x370 JUMPI PUSH1 0x0 DUP1 REVERT JUMPDEST PUSH1 0x1 SLOAD PUSH1 0x1 PUSH1 0x1 PUSH1 0xA0 SHL SUB AND CALLER EQ PUSH2 0x3F5 JUMPI PUSH1 0x40 MLOAD PUSH3 0x461BCD PUSH1 0xE5 SHL DUP2 MSTORE PUSH1 0x20 PUSH1 0x4 DUP3 ADD MSTORE PUSH1 0x38 PUSH1 0x24 DUP3 ADD MSTORE PUSH32 0x4F6E6C79207468652062757965722063616E20617070726F7665207468652072 PUSH1 0x44 DUP3 ADD MSTORE PUSH32 0x6563657074696F6E206F66207468652070726F647563742E0000000000000000 PUSH1 0x64 DUP3 ADD MSTORE PUSH1 0x84 ADD JUMPDEST PUSH1 0x40 MLOAD DUP1 SWAP2 SUB SWAP1 REVERT JUMPDEST POP PUSH1 0x5 DUP1 SLOAD PUSH1 0xFF NOT AND PUSH1 0x1 SWAP1 DUP2 OR SWAP1 SWAP2 SSTORE SWAP1 JUMP JUMPDEST PUSH1 0x2 DUP1 SLOAD PUSH2 0x416 SWAP1 PUSH2 0x764 JUMP JUMPDEST DUP1 PUSH1 0x1F ADD PUSH1 0x20 DUP1 SWAP2 DIV MUL PUSH1 0x20 ADD PUSH1 0x40 MLOAD SWAP1 DUP2 ADD PUSH1 0x40 MSTORE DUP1 SWAP3 SWAP2 SWAP1 DUP2 DUP2 MSTORE PUSH1 0x20 ADD DUP3 DUP1 SLOAD PUSH2 0x442 SWAP1 PUSH2 0x764 JUMP JUMPDEST DUP1 ISZERO PUSH2 0x48F JUMPI DUP1 PUSH1 0x1F LT PUSH2 0x464 JUMPI PUSH2 0x100 DUP1 DUP4 SLOAD DIV MUL DUP4 MSTORE SWAP2 PUSH1 0x20 ADD SWAP2 PUSH2 0x48F JUMP JUMPDEST DUP3 ADD SWAP2 SWAP1 PUSH1 0x0 MSTORE PUSH1 0x20 PUSH1 0x0 KECCAK256 SWAP1 JUMPDEST DUP2 SLOAD DUP2 MSTORE SWAP1 PUSH1 0x1 ADD SWAP1 PUSH1 0x20 ADD DUP1 DUP4 GT PUSH2 0x472 JUMPI DUP3 SWAP1 SUB PUSH1 0x1F AND DUP3 ADD SWAP2 JUMPDEST POP POP POP POP POP DUP2 JUMP JUMPDEST PUSH1 0x0 PUSH1 0x5 SLOAD PUSH3 0x10000 SWAP1 DIV PUSH1 0xFF AND PUSH1 0x3 DUP2 GT ISZERO PUSH2 0x4B6 JUMPI PUSH2 0x4B6 PUSH2 0x6D1 JUMP JUMPDEST EQ PUSH2 0x503 JUMPI PUSH1 0x40 MLOAD PUSH3 0x461BCD PUSH1 0xE5 SHL DUP2 MSTORE PUSH1 0x20 PUSH1 0x4 DUP3 ADD MSTORE PUSH1 0x18 PUSH1 0x24 DUP3 ADD MSTORE PUSH32 0x4974656D206973206E6F7420757020666F722073616C652E0000000000000000 PUSH1 0x44 DUP3 ADD MSTORE PUSH1 0x64 ADD PUSH2 0x3EC JUMP JUMPDEST PUSH1 0x3 SLOAD CALLVALUE LT ISZERO PUSH2 0x572 JUMPI PUSH1 0x40 MLOAD PUSH3 0x461BCD PUSH1 0xE5 SHL DUP2 MSTORE PUSH1 0x20 PUSH1 0x4 DUP3 ADD MSTORE PUSH1 0x34 PUSH1 0x24 DUP3 ADD MSTORE PUSH32 0x5472616E73616374696F6E2076616C756520746F6F206C6F7720666F72207075 PUSH1 0x44 DUP3 ADD MSTORE PUSH20 0x3931B430B9B29037B3103A3434B99034BA32B697 PUSH1 0x61 SHL PUSH1 0x64 DUP3 ADD MSTORE PUSH1 0x84 ADD PUSH2 0x3EC JUMP JUMPDEST PUSH1 0x1 DUP1 SLOAD PUSH1 0x1 PUSH1 0x1 PUSH1 0xA0 SHL SUB NOT AND CALLER OR SWAP1 SSTORE PUSH1 0x4 DUP1 SLOAD CALLVALUE SWAP2 SWAP1 PUSH1 0x0 SWAP1 PUSH2 0x599 SWAP1 DUP5 SWAP1 PUSH2 0x79E JUMP JUMPDEST SWAP1 SWAP2 SSTORE POP POP PUSH1 0x5 DUP1 SLOAD PUSH1 0x1 SWAP2 SWAP1 PUSH3 0xFF0000 NOT AND PUSH3 0x10000 DUP4 JUMPDEST MUL OR SWAP1 SSTORE POP JUMP JUMPDEST PUSH1 0x0 PUSH1 0x2 PUSH1 0x5 SLOAD PUSH3 0x10000 SWAP1 DIV PUSH1 0xFF AND PUSH1 0x3 DUP2 GT ISZERO PUSH2 0x5DA JUMPI PUSH2 0x5DA PUSH2 0x6D1 JUMP JUMPDEST EQ PUSH2 0x5E4 JUMPI PUSH1 0x0 DUP1 REVERT JUMPDEST PUSH1 0x0 SLOAD PUSH1 0x1 PUSH1 0x1 PUSH1 0xA0 SHL SUB AND CALLER EQ PUSH2 0x65D JUMPI PUSH1 0x40 MLOAD PUSH3 0x461BCD PUSH1 0xE5 SHL DUP2 MSTORE PUSH1 0x20 PUSH1 0x4 DUP3 ADD MSTORE PUSH1 0x36 PUSH1 0x24 DUP3 ADD MSTORE PUSH32 0x4F6E6C79207468652073656C6C65722063616E20617070726F76652074686520 PUSH1 0x44 DUP3 ADD MSTORE PUSH22 0x3932BA3AB9371037B3103A343290383937B23AB1BA17 PUSH1 0x51 SHL PUSH1 0x64 DUP3 ADD MSTORE PUSH1 0x84 ADD PUSH2 0x3EC JUMP JUMPDEST POP PUSH1 0x5 DUP1 SLOAD PUSH2 0xFF00 NOT AND PUSH2 0x100 SWAP1 DUP2 OR SWAP2 DUP3 SWAP1 SSTORE SWAP1 DIV PUSH1 0xFF AND SWAP1 JUMP JUMPDEST PUSH1 0x1 SLOAD PUSH1 0x1 PUSH1 0x1 PUSH1 0xA0 SHL SUB AND CALLER EQ PUSH2 0x690 JUMPI PUSH1 0x0 DUP1 REVERT JUMPDEST PUSH1 0x1 PUSH1 0x5 SLOAD PUSH3 0x10000 SWAP1 DIV PUSH1 0xFF AND PUSH1 0x3 DUP2 GT ISZERO PUSH2 0x6AF JUMPI PUSH2 0x6AF PUSH2 0x6D1 JUMP JUMPDEST EQ PUSH2 0x6B9 JUMPI PUSH1 0x0 DUP1 REVERT JUMPDEST PUSH1 0x5 DUP1 SLOAD PUSH1 0x2 SWAP2 SWAP1 PUSH3 0xFF0000 NOT AND PUSH3 0x10000 DUP4 PUSH2 0x5B2 JUMP JUMPDEST PUSH4 0x4E487B71 PUSH1 0xE0 SHL PUSH1 0x0 MSTORE PUSH1 0x21 PUSH1 0x4 MSTORE PUSH1 0x24 PUSH1 0x0 REVERT JUMPDEST PUSH1 0x20 DUP2 ADD PUSH1 0x4 DUP4 LT PUSH2 0x709 JUMPI PUSH4 0x4E487B71 PUSH1 0xE0 SHL PUSH1 0x0 MSTORE PUSH1 0x21 PUSH1 0x4 MSTORE PUSH1 0x24 PUSH1 0x0 REVERT JUMPDEST SWAP2 SWAP1 MSTORE SWAP1 JUMP JUMPDEST PUSH1 0x0 PUSH1 0x20 DUP1 DUP4 MSTORE DUP4 MLOAD DUP1 DUP3 DUP6 ADD MSTORE PUSH1 0x0 JUMPDEST DUP2 DUP2 LT ISZERO PUSH2 0x73C JUMPI DUP6 DUP2 ADD DUP4 ADD MLOAD DUP6 DUP3 ADD PUSH1 0x40 ADD MSTORE DUP3 ADD PUSH2 0x720 JUMP JUMPDEST DUP2 DUP2 GT ISZERO PUSH2 0x74E JUMPI PUSH1 0x0 PUSH1 0x40 DUP4 DUP8 ADD ADD MSTORE JUMPDEST POP PUSH1 0x1F ADD PUSH1 0x1F NOT AND SWAP3 SWAP1 SWAP3 ADD PUSH1 0x40 ADD SWAP4 SWAP3 POP POP POP JUMP JUMPDEST PUSH1 0x1 DUP2 DUP2 SHR SWAP1 DUP3 AND DUP1 PUSH2 0x778 JUMPI PUSH1 0x7F DUP3 AND SWAP2 POP JUMPDEST PUSH1 0x20 DUP3 LT DUP2 SUB PUSH2 0x798 JUMPI PUSH4 0x4E487B71 PUSH1 0xE0 SHL PUSH1 0x0 MSTORE PUSH1 0x22 PUSH1 0x4 MSTORE PUSH1 0x24 PUSH1 0x0 REVERT JUMPDEST POP SWAP2 SWAP1 POP JUMP JUMPDEST PUSH1 0x0 DUP3 NOT DUP3 GT ISZERO PUSH2 0x7BF JUMPI PUSH4 0x4E487B71 PUSH1 0xE0 SHL PUSH1 0x0 MSTORE PUSH1 0x11 PUSH1 0x4 MSTORE PUSH1 0x24 PUSH1 0x0 REVERT JUMPDEST POP ADD SWAP1 JUMP INVALID LOG2 PUSH5 0x6970667358 0x22 SLT KECCAK256 0xCC 0xEF SUB 0xE5 0xB5 PUSH31 0x67823D96522C5213EA4FADB2B2814C169E7390627871C28F72BD64736F6C63 NUMBER STOP ADDMOD 0xE STOP CALLER ","sha1":"821d975a70e003db3547567e8ace628e1f63c32e","source":"// SPDX-License-Identifier: MIT\n\npragma solidity ^0.8.0;\n\ncontract ProductTrade {\n    address public owner;\n    address public buyer;\n    string public productName;\n    uint256 public productPrice;\n    uint256 public contractBalance;\n    bool public receptionApproved;\n    bool public returnApproved;\n    TXN_STATE public txn_state;\n\n    constructor(string memory _productName, uint256 _productPrice) {\n        productName = _productName;\n        productPrice = _productPrice;\n        owner = msg.sender;\n        txn_state = TXN_STATE.FOR_SALE;\n    }\n\n    enum TXN_STATE {\n        FOR_SALE,\n        PURCHASED,\n        RETURN,\n        CLOSED\n    }\n\n    function startReturn() public payable {\n        require(msg.sender == buyer);\n        require(txn_state == TXN_STATE.PURCHASED);\n        txn_state = TXN_STATE.RETURN;\n    }\n\n    function buyProduct() public payable {\n        require(txn_state == TXN_STATE.FOR_SALE, \"Item is not up for sale.\");\n        require(\n            msg.value >= productPrice,\n            \"Transaction value too low for purchase of this item.\"\n        ); // Ensure that the buyer does not purchase the product for the wrong price.\n        buyer = msg.sender;\n        contractBalance += msg.value;\n        txn_state = TXN_STATE.PURCHASED;\n    }\n\n    function approveReception() public returns (bool) {\n        require(txn_state == TXN_STATE.PURCHASED);\n        require(\n            msg.sender == buyer,\n            \"Only the buyer can approve the reception of the product.\"\n        );\n        receptionApproved = true;\n        return receptionApproved;\n    }\n\n    function approveReturn() public returns (bool) {\n        require(txn_state == TXN_STATE.RETURN);\n        require(\n            msg.sender == owner,\n            \"Only the seller can approve the return of the product.\"\n        );\n        returnApproved = true;\n        return returnApproved;\n    }\n\n    function getState() public view returns (TXN_STATE) {\n        return txn_state;\n    }\n\n    function withdraw() public returns (bool) {\n        if (returnApproved && msg.sender == buyer) {\n            payable(msg.sender).transfer(address(this).balance);\n            contractBalance = 0;\n            txn_state = TXN_STATE.CLOSED;\n            return true;\n        } else if (receptionApproved && msg.sender == owner) {\n            payable(msg.sender).transfer(address(this).balance);\n            contractBalance = 0;\n            txn_state = TXN_STATE.CLOSED;\n            return true;\n        }\n        return false;\n    }\n}\n","sourcePath":"contracts/ProductTrade.sol","type":"contract","deployment":{"address":"0x267c8F59e134284f9591b9209A836f24157B3ff7","chainid":"3","blockHeight":12439230}}