{"abi":[{"inputs":[{"internalType":"string","name":"_productName","type":"string"},{"internalType":"uint256","name":"_productPrice","type":"uint256"},{"internalType":"address","name":"_owner","type":"address"}],"stateMutability":"nonpayable","type":"constructor","name":"constructor"},{"inputs":[],"name":"approveReception","outputs":[{"internalType":"bool","name":"","type":"bool"}],"stateMutability":"nonpayable","type":"function"},{"inputs":[],"name":"approveReturn","outputs":[{"internalType":"bool","name":"","type":"bool"}],"stateMutability":"nonpayable","type":"function"},{"inputs":[],"name":"buyProduct","outputs":[],"stateMutability":"payable","type":"function"},{"inputs":[],"name":"buyer","outputs":[{"internalType":"address","name":"","type":"address"}],"stateMutability":"view","type":"function"},{"inputs":[],"name":"contractBalance","outputs":[{"internalType":"uint256","name":"","type":"uint256"}],"stateMutability":"view","type":"function"},{"inputs":[],"name":"getState","outputs":[{"internalType":"uint8","name":"","type":"uint8"}],"stateMutability":"view","type":"function"},{"inputs":[],"name":"owner","outputs":[{"internalType":"address","name":"","type":"address"}],"stateMutability":"view","type":"function"},{"inputs":[],"name":"productName","outputs":[{"internalType":"string","name":"","type":"string"}],"stateMutability":"view","type":"function"},{"inputs":[],"name":"productPrice","outputs":[{"internalType":"uint256","name":"","type":"uint256"}],"stateMutability":"view","type":"function"},{"inputs":[],"name":"receptionApproved","outputs":[{"internalType":"bool","name":"","type":"bool"}],"stateMutability":"view","type":"function"},{"inputs":[],"name":"returnApproved","outputs":[{"internalType":"bool","name":"","type":"bool"}],"stateMutability":"view","type":"function"},{"inputs":[],"name":"startReturn","outputs":[],"stateMutability":"payable","type":"function"},{"inputs":[],"name":"txn_state","outputs":[{"internalType":"enum ProductTrade.TXN_STATE","name":"","type":"uint8"}],"stateMutability":"view","type":"function"},{"inputs":[],"name":"withdraw","outputs":[],"stateMutability":"nonpayable","type":"function"}],"bytecode":"60806040523480156200001157600080fd5b5060405162000b8438038062000b84833981016040819052620000349162000160565b82516200004990600290602086019062000087565b506003829055600080546001600160a01b0319166001600160a01b0383161781556005805462ff000019166201000083021790555050505062000297565b82805462000095906200025b565b90600052602060002090601f016020900481019282620000b9576000855562000104565b82601f10620000d457805160ff191683800117855562000104565b8280016001018555821562000104579182015b8281111562000104578251825591602001919060010190620000e7565b506200011292915062000116565b5090565b5b8082111562000112576000815560010162000117565b634e487b7160e01b600052604160045260246000fd5b80516001600160a01b03811681146200015b57600080fd5b919050565b6000806000606084860312156200017657600080fd5b83516001600160401b03808211156200018e57600080fd5b818601915086601f830112620001a357600080fd5b815181811115620001b857620001b86200012d565b604051601f8201601f19908116603f01168101908382118183101715620001e357620001e36200012d565b816040528281526020935089848487010111156200020057600080fd5b600091505b8282101562000224578482018401518183018501529083019062000205565b82821115620002365760008484830101525b8097505050508086015193505050620002526040850162000143565b90509250925092565b600181811c908216806200027057607f821691505b6020821081036200029157634e487b7160e01b600052602260045260246000fd5b50919050565b6108dd80620002a76000396000f3fe6080604052600436106100dd5760003560e01c80638da5cb5b1161007f5780639ada9b7b116100595780639ada9b7b1461024a578063ad70c2ef14610252578063c719642a14610267578063d9188a4a1461026f57600080fd5b80638da5cb5b146101e75780639497d3ae1461020757806394bf5a981461021d57600080fd5b80637150d8ae116100bb5780637150d8ae1461014a5780637f7650eb146101825780638b7afe2e146101a45780638d1ce630146101c857600080fd5b80631865c57d146100e25780633ccfd60b1461010e5780635a9b9ed814610125575b600080fd5b3480156100ee57600080fd5b506100f7610289565b60405160ff90911681526020015b60405180910390f35b34801561011a57600080fd5b506101236102ae565b005b34801561013157600080fd5b5061013a61042d565b6040519015158152602001610105565b34801561015657600080fd5b5060015461016a906001600160a01b031681565b6040516001600160a01b039091168152602001610105565b34801561018e57600080fd5b506101976104ec565b60405161010591906107b4565b3480156101b057600080fd5b506101ba60045481565b604051908152602001610105565b3480156101d457600080fd5b5060055461013a90610100900460ff1681565b3480156101f357600080fd5b5060005461016a906001600160a01b031681565b34801561021357600080fd5b506101ba60035481565b34801561022957600080fd5b5060055461023d9062010000900460ff1681565b604051610105919061081f565b61012361057a565b34801561025e57600080fd5b5061013a61069c565b61012361075c565b34801561027b57600080fd5b5060055461013a9060ff1681565b60055460009062010000900460ff1660038111156102a9576102a9610809565b905090565b6000546001600160a01b0316158015906102d257506001546001600160a01b031615155b61032f5760405162461bcd60e51b8152602060048201526024808201527f43616e6e6f7420776974686472617720746f20746865207a65726f206164647260448201526332b9b99760e11b60648201526084015b60405180910390fd5b600554610100900460ff1615610391576001546040516001600160a01b03909116904780156108fc02916000818181858888f19350505050158015610378573d6000803e3d6000fd5b5060006004556005805462ff0000191662030000179055565b60055460ff16156103d657600080546040516001600160a01b03909116914780156108fc02929091818181858888f19350505050158015610378573d6000803e3d6000fd5b60405162461bcd60e51b815260206004820152602660248201527f5769746864726177616c206e6f7420706f737369626c6520617420746865206d60448201526537b6b2b73a1760d11b6064820152608401610326565b6000600160055462010000900460ff16600381111561044e5761044e610809565b1461045857600080fd5b6001546001600160a01b031633146104d85760405162461bcd60e51b815260206004820152603860248201527f4f6e6c79207468652062757965722063616e20617070726f766520746865207260448201527f6563657074696f6e206f66207468652070726f647563742e00000000000000006064820152608401610326565b506005805460ff1916600190811790915590565b600280546104f990610847565b80601f016020809104026020016040519081016040528092919081815260200182805461052590610847565b80156105725780601f1061054757610100808354040283529160200191610572565b820191906000526020600020905b81548152906001019060200180831161055557829003601f168201915b505050505081565b600060055462010000900460ff16600381111561059957610599610809565b146105e65760405162461bcd60e51b815260206004820152601860248201527f4974656d206973206e6f7420757020666f722073616c652e00000000000000006044820152606401610326565b6003543410156106555760405162461bcd60e51b815260206004820152603460248201527f5472616e73616374696f6e2076616c756520746f6f206c6f7720666f722070756044820152733931b430b9b29037b3103a3434b99034ba32b69760611b6064820152608401610326565b600180546001600160a01b031916331790556004805434919060009061067c908490610881565b9091555050600580546001919062ff0000191662010000835b0217905550565b6000600260055462010000900460ff1660038111156106bd576106bd610809565b146106c757600080fd5b6000546001600160a01b031633146107405760405162461bcd60e51b815260206004820152603660248201527f4f6e6c79207468652073656c6c65722063616e20617070726f766520746865206044820152753932ba3ab9371037b3103a343290383937b23ab1ba1760511b6064820152608401610326565b506005805461ff00191661010090811791829055900460ff1690565b6001546001600160a01b0316331461077357600080fd5b600160055462010000900460ff16600381111561079257610792610809565b1461079c57600080fd5b600580546002919062ff000019166201000083610695565b600060208083528351808285015260005b818110156107e1578581018301518582016040015282016107c5565b818111156107f3576000604083870101525b50601f01601f1916929092016040019392505050565b634e487b7160e01b600052602160045260246000fd5b602081016004831061084157634e487b7160e01b600052602160045260246000fd5b91905290565b600181811c9082168061085b57607f821691505b60208210810361087b57634e487b7160e01b600052602260045260246000fd5b50919050565b600082198211156108a257634e487b7160e01b600052601160045260246000fd5b50019056fea26469706673582212204786352f35229cb1d85cafe4bb8e298754ac965d92bdf66e19ee27b88978617964736f6c634300080e0033","bytecodeSha1":"72f882d6fb6136b726b7457b190459b00427aa48","compiler":{"evm_version":"istanbul","optimizer":{"enabled":true,"runs":200},"version":"0.8.14+commit.80d49f37"},"contractName":"ProductTrade","language":"Solidity","natspec":{"kind":"dev","methods":{},"version":1},"opcodes":"PUSH1 0x80 PUSH1 0x40 MSTORE PUSH1 0x4 CALLDATASIZE LT PUSH2 0xDD JUMPI PUSH1 0x0 CALLDATALOAD PUSH1 0xE0 SHR DUP1 PUSH4 0x8DA5CB5B GT PUSH2 0x7F JUMPI DUP1 PUSH4 0x9ADA9B7B GT PUSH2 0x59 JUMPI DUP1 PUSH4 0x9ADA9B7B EQ PUSH2 0x24A JUMPI DUP1 PUSH4 0xAD70C2EF EQ PUSH2 0x252 JUMPI DUP1 PUSH4 0xC719642A EQ PUSH2 0x267 JUMPI DUP1 PUSH4 0xD9188A4A EQ PUSH2 0x26F JUMPI PUSH1 0x0 DUP1 REVERT JUMPDEST DUP1 PUSH4 0x8DA5CB5B EQ PUSH2 0x1E7 JUMPI DUP1 PUSH4 0x9497D3AE EQ PUSH2 0x207 JUMPI DUP1 PUSH4 0x94BF5A98 EQ PUSH2 0x21D JUMPI PUSH1 0x0 DUP1 REVERT JUMPDEST DUP1 PUSH4 0x7150D8AE GT PUSH2 0xBB JUMPI DUP1 PUSH4 0x7150D8AE EQ PUSH2 0x14A JUMPI DUP1 PUSH4 0x7F7650EB EQ PUSH2 0x182 JUMPI DUP1 PUSH4 0x8B7AFE2E EQ PUSH2 0x1A4 JUMPI DUP1 PUSH4 0x8D1CE630 EQ PUSH2 0x1C8 JUMPI PUSH1 0x0 DUP1 REVERT JUMPDEST DUP1 PUSH4 0x1865C57D EQ PUSH2 0xE2 JUMPI DUP1 PUSH4 0x3CCFD60B EQ PUSH2 0x10E JUMPI DUP1 PUSH4 0x5A9B9ED8 EQ PUSH2 0x125 JUMPI JUMPDEST PUSH1 0x0 DUP1 REVERT JUMPDEST CALLVALUE DUP1 ISZERO PUSH2 0xEE JUMPI PUSH1 0x0 DUP1 REVERT JUMPDEST POP PUSH2 0xF7 PUSH2 0x289 JUMP JUMPDEST PUSH1 0x40 MLOAD PUSH1 0xFF SWAP1 SWAP2 AND DUP2 MSTORE PUSH1 0x20 ADD JUMPDEST PUSH1 0x40 MLOAD DUP1 SWAP2 SUB SWAP1 RETURN JUMPDEST CALLVALUE DUP1 ISZERO PUSH2 0x11A JUMPI PUSH1 0x0 DUP1 REVERT JUMPDEST POP PUSH2 0x123 PUSH2 0x2AE JUMP JUMPDEST STOP JUMPDEST CALLVALUE DUP1 ISZERO PUSH2 0x131 JUMPI PUSH1 0x0 DUP1 REVERT JUMPDEST POP PUSH2 0x13A PUSH2 0x42D JUMP JUMPDEST PUSH1 0x40 MLOAD SWAP1 ISZERO ISZERO DUP2 MSTORE PUSH1 0x20 ADD PUSH2 0x105 JUMP JUMPDEST CALLVALUE DUP1 ISZERO PUSH2 0x156 JUMPI PUSH1 0x0 DUP1 REVERT JUMPDEST POP PUSH1 0x1 SLOAD PUSH2 0x16A SWAP1 PUSH1 0x1 PUSH1 0x1 PUSH1 0xA0 SHL SUB AND DUP2 JUMP JUMPDEST PUSH1 0x40 MLOAD PUSH1 0x1 PUSH1 0x1 PUSH1 0xA0 SHL SUB SWAP1 SWAP2 AND DUP2 MSTORE PUSH1 0x20 ADD PUSH2 0x105 JUMP JUMPDEST CALLVALUE DUP1 ISZERO PUSH2 0x18E JUMPI PUSH1 0x0 DUP1 REVERT JUMPDEST POP PUSH2 0x197 PUSH2 0x4EC JUMP JUMPDEST PUSH1 0x40 MLOAD PUSH2 0x105 SWAP2 SWAP1 PUSH2 0x7B4 JUMP JUMPDEST CALLVALUE DUP1 ISZERO PUSH2 0x1B0 JUMPI PUSH1 0x0 DUP1 REVERT JUMPDEST POP PUSH2 0x1BA PUSH1 0x4 SLOAD DUP2 JUMP JUMPDEST PUSH1 0x40 MLOAD SWAP1 DUP2 MSTORE PUSH1 0x20 ADD PUSH2 0x105 JUMP JUMPDEST CALLVALUE DUP1 ISZERO PUSH2 0x1D4 JUMPI PUSH1 0x0 DUP1 REVERT JUMPDEST POP PUSH1 0x5 SLOAD PUSH2 0x13A SWAP1 PUSH2 0x100 SWAP1 DIV PUSH1 0xFF AND DUP2 JUMP JUMPDEST CALLVALUE DUP1 ISZERO PUSH2 0x1F3 JUMPI PUSH1 0x0 DUP1 REVERT JUMPDEST POP PUSH1 0x0 SLOAD PUSH2 0x16A SWAP1 PUSH1 0x1 PUSH1 0x1 PUSH1 0xA0 SHL SUB AND DUP2 JUMP JUMPDEST CALLVALUE DUP1 ISZERO PUSH2 0x213 JUMPI PUSH1 0x0 DUP1 REVERT JUMPDEST POP PUSH2 0x1BA PUSH1 0x3 SLOAD DUP2 JUMP JUMPDEST CALLVALUE DUP1 ISZERO PUSH2 0x229 JUMPI PUSH1 0x0 DUP1 REVERT JUMPDEST POP PUSH1 0x5 SLOAD PUSH2 0x23D SWAP1 PUSH3 0x10000 SWAP1 DIV PUSH1 0xFF AND DUP2 JUMP JUMPDEST PUSH1 0x40 MLOAD PUSH2 0x105 SWAP2 SWAP1 PUSH2 0x81F JUMP JUMPDEST PUSH2 0x123 PUSH2 0x57A JUMP JUMPDEST CALLVALUE DUP1 ISZERO PUSH2 0x25E JUMPI PUSH1 0x0 DUP1 REVERT JUMPDEST POP PUSH2 0x13A PUSH2 0x69C JUMP JUMPDEST PUSH2 0x123 PUSH2 0x75C JUMP JUMPDEST CALLVALUE DUP1 ISZERO PUSH2 0x27B JUMPI PUSH1 0x0 DUP1 REVERT JUMPDEST POP PUSH1 0x5 SLOAD PUSH2 0x13A SWAP1 PUSH1 0xFF AND DUP2 JUMP JUMPDEST PUSH1 0x5 SLOAD PUSH1 0x0 SWAP1 PUSH3 0x10000 SWAP1 DIV PUSH1 0xFF AND PUSH1 0x3 DUP2 GT ISZERO PUSH2 0x2A9 JUMPI PUSH2 0x2A9 PUSH2 0x809 JUMP JUMPDEST SWAP1 POP SWAP1 JUMP JUMPDEST PUSH1 0x0 SLOAD PUSH1 0x1 PUSH1 0x1 PUSH1 0xA0 SHL SUB AND ISZERO DUP1 ISZERO SWAP1 PUSH2 0x2D2 JUMPI POP PUSH1 0x1 SLOAD PUSH1 0x1 PUSH1 0x1 PUSH1 0xA0 SHL SUB AND ISZERO ISZERO JUMPDEST PUSH2 0x32F JUMPI PUSH1 0x40 MLOAD PUSH3 0x461BCD PUSH1 0xE5 SHL DUP2 MSTORE PUSH1 0x20 PUSH1 0x4 DUP3 ADD MSTORE PUSH1 0x24 DUP1 DUP3 ADD MSTORE PUSH32 0x43616E6E6F7420776974686472617720746F20746865207A65726F2061646472 PUSH1 0x44 DUP3 ADD MSTORE PUSH4 0x32B9B997 PUSH1 0xE1 SHL PUSH1 0x64 DUP3 ADD MSTORE PUSH1 0x84 ADD JUMPDEST PUSH1 0x40 MLOAD DUP1 SWAP2 SUB SWAP1 REVERT JUMPDEST PUSH1 0x5 SLOAD PUSH2 0x100 SWAP1 DIV PUSH1 0xFF AND ISZERO PUSH2 0x391 JUMPI PUSH1 0x1 SLOAD PUSH1 0x40 MLOAD PUSH1 0x1 PUSH1 0x1 PUSH1 0xA0 SHL SUB SWAP1 SWAP2 AND SWAP1 SELFBALANCE DUP1 ISZERO PUSH2 0x8FC MUL SWAP2 PUSH1 0x0 DUP2 DUP2 DUP2 DUP6 DUP9 DUP9 CALL SWAP4 POP POP POP POP ISZERO DUP1 ISZERO PUSH2 0x378 JUMPI RETURNDATASIZE PUSH1 0x0 DUP1 RETURNDATACOPY RETURNDATASIZE PUSH1 0x0 REVERT JUMPDEST POP PUSH1 0x0 PUSH1 0x4 SSTORE PUSH1 0x5 DUP1 SLOAD PUSH3 0xFF0000 NOT AND PUSH3 0x30000 OR SWAP1 SSTORE JUMP JUMPDEST PUSH1 0x5 SLOAD PUSH1 0xFF AND ISZERO PUSH2 0x3D6 JUMPI PUSH1 0x0 DUP1 SLOAD PUSH1 0x40 MLOAD PUSH1 0x1 PUSH1 0x1 PUSH1 0xA0 SHL SUB SWAP1 SWAP2 AND SWAP2 SELFBALANCE DUP1 ISZERO PUSH2 0x8FC MUL SWAP3 SWAP1 SWAP2 DUP2 DUP2 DUP2 DUP6 DUP9 DUP9 CALL SWAP4 POP POP POP POP ISZERO DUP1 ISZERO PUSH2 0x378 JUMPI RETURNDATASIZE PUSH1 0x0 DUP1 RETURNDATACOPY RETURNDATASIZE PUSH1 0x0 REVERT JUMPDEST PUSH1 0x40 MLOAD PUSH3 0x461BCD PUSH1 0xE5 SHL DUP2 MSTORE PUSH1 0x20 PUSH1 0x4 DUP3 ADD MSTORE PUSH1 0x26 PUSH1 0x24 DUP3 ADD MSTORE PUSH32 0x5769746864726177616C206E6F7420706F737369626C6520617420746865206D PUSH1 0x44 DUP3 ADD MSTORE PUSH6 0x37B6B2B73A17 PUSH1 0xD1 SHL PUSH1 0x64 DUP3 ADD MSTORE PUSH1 0x84 ADD PUSH2 0x326 JUMP JUMPDEST PUSH1 0x0 PUSH1 0x1 PUSH1 0x5 SLOAD PUSH3 0x10000 SWAP1 DIV PUSH1 0xFF AND PUSH1 0x3 DUP2 GT ISZERO PUSH2 0x44E JUMPI PUSH2 0x44E PUSH2 0x809 JUMP JUMPDEST EQ PUSH2 0x458 JUMPI PUSH1 0x0 DUP1 REVERT JUMPDEST PUSH1 0x1 SLOAD PUSH1 0x1 PUSH1 0x1 PUSH1 0xA0 SHL SUB AND CALLER EQ PUSH2 0x4D8 JUMPI PUSH1 0x40 MLOAD PUSH3 0x461BCD PUSH1 0xE5 SHL DUP2 MSTORE PUSH1 0x20 PUSH1 0x4 DUP3 ADD MSTORE PUSH1 0x38 PUSH1 0x24 DUP3 ADD MSTORE PUSH32 0x4F6E6C79207468652062757965722063616E20617070726F7665207468652072 PUSH1 0x44 DUP3 ADD MSTORE PUSH32 0x6563657074696F6E206F66207468652070726F647563742E0000000000000000 PUSH1 0x64 DUP3 ADD MSTORE PUSH1 0x84 ADD PUSH2 0x326 JUMP JUMPDEST POP PUSH1 0x5 DUP1 SLOAD PUSH1 0xFF NOT AND PUSH1 0x1 SWAP1 DUP2 OR SWAP1 SWAP2 SSTORE SWAP1 JUMP JUMPDEST PUSH1 0x2 DUP1 SLOAD PUSH2 0x4F9 SWAP1 PUSH2 0x847 JUMP JUMPDEST DUP1 PUSH1 0x1F ADD PUSH1 0x20 DUP1 SWAP2 DIV MUL PUSH1 0x20 ADD PUSH1 0x40 MLOAD SWAP1 DUP2 ADD PUSH1 0x40 MSTORE DUP1 SWAP3 SWAP2 SWAP1 DUP2 DUP2 MSTORE PUSH1 0x20 ADD DUP3 DUP1 SLOAD PUSH2 0x525 SWAP1 PUSH2 0x847 JUMP JUMPDEST DUP1 ISZERO PUSH2 0x572 JUMPI DUP1 PUSH1 0x1F LT PUSH2 0x547 JUMPI PUSH2 0x100 DUP1 DUP4 SLOAD DIV MUL DUP4 MSTORE SWAP2 PUSH1 0x20 ADD SWAP2 PUSH2 0x572 JUMP JUMPDEST DUP3 ADD SWAP2 SWAP1 PUSH1 0x0 MSTORE PUSH1 0x20 PUSH1 0x0 KECCAK256 SWAP1 JUMPDEST DUP2 SLOAD DUP2 MSTORE SWAP1 PUSH1 0x1 ADD SWAP1 PUSH1 0x20 ADD DUP1 DUP4 GT PUSH2 0x555 JUMPI DUP3 SWAP1 SUB PUSH1 0x1F AND DUP3 ADD SWAP2 JUMPDEST POP POP POP POP POP DUP2 JUMP JUMPDEST PUSH1 0x0 PUSH1 0x5 SLOAD PUSH3 0x10000 SWAP1 DIV PUSH1 0xFF AND PUSH1 0x3 DUP2 GT ISZERO PUSH2 0x599 JUMPI PUSH2 0x599 PUSH2 0x809 JUMP JUMPDEST EQ PUSH2 0x5E6 JUMPI PUSH1 0x40 MLOAD PUSH3 0x461BCD PUSH1 0xE5 SHL DUP2 MSTORE PUSH1 0x20 PUSH1 0x4 DUP3 ADD MSTORE PUSH1 0x18 PUSH1 0x24 DUP3 ADD MSTORE PUSH32 0x4974656D206973206E6F7420757020666F722073616C652E0000000000000000 PUSH1 0x44 DUP3 ADD MSTORE PUSH1 0x64 ADD PUSH2 0x326 JUMP JUMPDEST PUSH1 0x3 SLOAD CALLVALUE LT ISZERO PUSH2 0x655 JUMPI PUSH1 0x40 MLOAD PUSH3 0x461BCD PUSH1 0xE5 SHL DUP2 MSTORE PUSH1 0x20 PUSH1 0x4 DUP3 ADD MSTORE PUSH1 0x34 PUSH1 0x24 DUP3 ADD MSTORE PUSH32 0x5472616E73616374696F6E2076616C756520746F6F206C6F7720666F72207075 PUSH1 0x44 DUP3 ADD MSTORE PUSH20 0x3931B430B9B29037B3103A3434B99034BA32B697 PUSH1 0x61 SHL PUSH1 0x64 DUP3 ADD MSTORE PUSH1 0x84 ADD PUSH2 0x326 JUMP JUMPDEST PUSH1 0x1 DUP1 SLOAD PUSH1 0x1 PUSH1 0x1 PUSH1 0xA0 SHL SUB NOT AND CALLER OR SWAP1 SSTORE PUSH1 0x4 DUP1 SLOAD CALLVALUE SWAP2 SWAP1 PUSH1 0x0 SWAP1 PUSH2 0x67C SWAP1 DUP5 SWAP1 PUSH2 0x881 JUMP JUMPDEST SWAP1 SWAP2 SSTORE POP POP PUSH1 0x5 DUP1 SLOAD PUSH1 0x1 SWAP2 SWAP1 PUSH3 0xFF0000 NOT AND PUSH3 0x10000 DUP4 JUMPDEST MUL OR SWAP1 SSTORE POP JUMP JUMPDEST PUSH1 0x0 PUSH1 0x2 PUSH1 0x5 SLOAD PUSH3 0x10000 SWAP1 DIV PUSH1 0xFF AND PUSH1 0x3 DUP2 GT ISZERO PUSH2 0x6BD JUMPI PUSH2 0x6BD PUSH2 0x809 JUMP JUMPDEST EQ PUSH2 0x6C7 JUMPI PUSH1 0x0 DUP1 REVERT JUMPDEST PUSH1 0x0 SLOAD PUSH1 0x1 PUSH1 0x1 PUSH1 0xA0 SHL SUB AND CALLER EQ PUSH2 0x740 JUMPI PUSH1 0x40 MLOAD PUSH3 0x461BCD PUSH1 0xE5 SHL DUP2 MSTORE PUSH1 0x20 PUSH1 0x4 DUP3 ADD MSTORE PUSH1 0x36 PUSH1 0x24 DUP3 ADD MSTORE PUSH32 0x4F6E6C79207468652073656C6C65722063616E20617070726F76652074686520 PUSH1 0x44 DUP3 ADD MSTORE PUSH22 0x3932BA3AB9371037B3103A343290383937B23AB1BA17 PUSH1 0x51 SHL PUSH1 0x64 DUP3 ADD MSTORE PUSH1 0x84 ADD PUSH2 0x326 JUMP JUMPDEST POP PUSH1 0x5 DUP1 SLOAD PUSH2 0xFF00 NOT AND PUSH2 0x100 SWAP1 DUP2 OR SWAP2 DUP3 SWAP1 SSTORE SWAP1 DIV PUSH1 0xFF AND SWAP1 JUMP JUMPDEST PUSH1 0x1 SLOAD PUSH1 0x1 PUSH1 0x1 PUSH1 0xA0 SHL SUB AND CALLER EQ PUSH2 0x773 JUMPI PUSH1 0x0 DUP1 REVERT JUMPDEST PUSH1 0x1 PUSH1 0x5 SLOAD PUSH3 0x10000 SWAP1 DIV PUSH1 0xFF AND PUSH1 0x3 DUP2 GT ISZERO PUSH2 0x792 JUMPI PUSH2 0x792 PUSH2 0x809 JUMP JUMPDEST EQ PUSH2 0x79C JUMPI PUSH1 0x0 DUP1 REVERT JUMPDEST PUSH1 0x5 DUP1 SLOAD PUSH1 0x2 SWAP2 SWAP1 PUSH3 0xFF0000 NOT AND PUSH3 0x10000 DUP4 PUSH2 0x695 JUMP JUMPDEST PUSH1 0x0 PUSH1 0x20 DUP1 DUP4 MSTORE DUP4 MLOAD DUP1 DUP3 DUP6 ADD MSTORE PUSH1 0x0 JUMPDEST DUP2 DUP2 LT ISZERO PUSH2 0x7E1 JUMPI DUP6 DUP2 ADD DUP4 ADD MLOAD DUP6 DUP3 ADD PUSH1 0x40 ADD MSTORE DUP3 ADD PUSH2 0x7C5 JUMP JUMPDEST DUP2 DUP2 GT ISZERO PUSH2 0x7F3 JUMPI PUSH1 0x0 PUSH1 0x40 DUP4 DUP8 ADD ADD MSTORE JUMPDEST POP PUSH1 0x1F ADD PUSH1 0x1F NOT AND SWAP3 SWAP1 SWAP3 ADD PUSH1 0x40 ADD SWAP4 SWAP3 POP POP POP JUMP JUMPDEST PUSH4 0x4E487B71 PUSH1 0xE0 SHL PUSH1 0x0 MSTORE PUSH1 0x21 PUSH1 0x4 MSTORE PUSH1 0x24 PUSH1 0x0 REVERT JUMPDEST PUSH1 0x20 DUP2 ADD PUSH1 0x4 DUP4 LT PUSH2 0x841 JUMPI PUSH4 0x4E487B71 PUSH1 0xE0 SHL PUSH1 0x0 MSTORE PUSH1 0x21 PUSH1 0x4 MSTORE PUSH1 0x24 PUSH1 0x0 REVERT JUMPDEST SWAP2 SWAP1 MSTORE SWAP1 JUMP JUMPDEST PUSH1 0x1 DUP2 DUP2 SHR SWAP1 DUP3 AND DUP1 PUSH2 0x85B JUMPI PUSH1 0x7F DUP3 AND SWAP2 POP JUMPDEST PUSH1 0x20 DUP3 LT DUP2 SUB PUSH2 0x87B JUMPI PUSH4 0x4E487B71 PUSH1 0xE0 SHL PUSH1 0x0 MSTORE PUSH1 0x22 PUSH1 0x4 MSTORE PUSH1 0x24 PUSH1 0x0 REVERT JUMPDEST POP SWAP2 SWAP1 POP JUMP JUMPDEST PUSH1 0x0 DUP3 NOT DUP3 GT ISZERO PUSH2 0x8A2 JUMPI PUSH4 0x4E487B71 PUSH1 0xE0 SHL PUSH1 0x0 MSTORE PUSH1 0x11 PUSH1 0x4 MSTORE PUSH1 0x24 PUSH1 0x0 REVERT JUMPDEST POP ADD SWAP1 JUMP INVALID LOG2 PUSH5 0x6970667358 0x22 SLT KECCAK256 SELFBALANCE DUP7 CALLDATALOAD 0x2F CALLDATALOAD 0x22 SWAP13 0xB1 0xD8 0x5C 0xAF 0xE4 0xBB DUP15 0x29 DUP8 SLOAD 0xAC SWAP7 0x5D SWAP3 0xBD 0xF6 PUSH15 0x19EE27B88978617964736F6C634300 ADDMOD 0xE STOP CALLER ","sha1":"76f561ea2ad11b9f0ff8d268ae96882aa5182529","source":"// SPDX-License-Identifier: MIT\n\npragma solidity ^0.8.0;\n\ncontract ProductTrade {\n    address public owner;\n    address public buyer;\n    string public productName;\n    uint256 public productPrice;\n    uint256 public contractBalance;\n    bool public receptionApproved;\n    bool public returnApproved;\n    TXN_STATE public txn_state;\n\n    constructor(\n        string memory _productName,\n        uint256 _productPrice,\n        address _owner\n    ) {\n        productName = _productName;\n        productPrice = _productPrice;\n        owner = _owner;\n        txn_state = TXN_STATE.FOR_SALE;\n    }\n\n    enum TXN_STATE {\n        FOR_SALE,\n        PURCHASED,\n        RETURN,\n        CLOSED\n    }\n\n    function startReturn() public payable {\n        require(msg.sender == buyer);\n        require(txn_state == TXN_STATE.PURCHASED);\n        txn_state = TXN_STATE.RETURN;\n    }\n\n    function buyProduct() public payable {\n        require(txn_state == TXN_STATE.FOR_SALE, \"Item is not up for sale.\");\n        require(\n            msg.value >= productPrice,\n            \"Transaction value too low for purchase of this item.\"\n        ); // Ensure that the buyer does not purchase the product for the wrong price.\n        buyer = msg.sender;\n        contractBalance += msg.value;\n        txn_state = TXN_STATE.PURCHASED;\n    }\n\n    function approveReception() public returns (bool) {\n        require(txn_state == TXN_STATE.PURCHASED);\n        require(\n            msg.sender == buyer,\n            \"Only the buyer can approve the reception of the product.\"\n        );\n        receptionApproved = true;\n        return receptionApproved;\n    }\n\n    function approveReturn() public returns (bool) {\n        require(txn_state == TXN_STATE.RETURN);\n        require(\n            msg.sender == owner,\n            \"Only the seller can approve the return of the product.\"\n        );\n        returnApproved = true;\n        return returnApproved;\n    }\n\n    function getState() public view returns (uint8) {\n        return uint8(txn_state);\n    }\n\n    function withdraw() public {\n        require(\n            owner != address(0) && buyer != address(0),\n            \"Cannot withdraw to the zero address.\"\n        );\n        if (returnApproved) {\n            payable(address(buyer)).transfer(address(this).balance);\n            contractBalance = 0;\n            txn_state = TXN_STATE.CLOSED;\n        } else if (receptionApproved) {\n            payable(address(owner)).transfer(address(this).balance);\n            contractBalance = 0;\n            txn_state = TXN_STATE.CLOSED;\n        } else {\n            revert(\"Withdrawal not possible at the moment.\");\n        }\n    }\n}\n","sourcePath":"contracts/ProductTrade.sol","type":"contract","deployment":{"address":"0x889575C36AEd5D6955a09B3c8c50e5081522Dde2","chainid":"3","blockHeight":12442005}}