{"abi":[{"inputs":[{"internalType":"string","name":"_productName","type":"string"},{"internalType":"uint256","name":"_productPrice","type":"uint256"}],"stateMutability":"nonpayable","type":"constructor","name":"constructor"},{"inputs":[],"name":"approveReception","outputs":[{"internalType":"bool","name":"","type":"bool"}],"stateMutability":"nonpayable","type":"function"},{"inputs":[],"name":"approveReturn","outputs":[{"internalType":"bool","name":"","type":"bool"}],"stateMutability":"nonpayable","type":"function"},{"inputs":[],"name":"buyProduct","outputs":[],"stateMutability":"payable","type":"function"},{"inputs":[],"name":"buyer","outputs":[{"internalType":"address","name":"","type":"address"}],"stateMutability":"view","type":"function"},{"inputs":[],"name":"contractBalance","outputs":[{"internalType":"uint256","name":"","type":"uint256"}],"stateMutability":"view","type":"function"},{"inputs":[],"name":"owner","outputs":[{"internalType":"address","name":"","type":"address"}],"stateMutability":"view","type":"function"},{"inputs":[],"name":"productName","outputs":[{"internalType":"string","name":"","type":"string"}],"stateMutability":"view","type":"function"},{"inputs":[],"name":"productPrice","outputs":[{"internalType":"uint256","name":"","type":"uint256"}],"stateMutability":"view","type":"function"},{"inputs":[],"name":"receptionApproved","outputs":[{"internalType":"bool","name":"","type":"bool"}],"stateMutability":"view","type":"function"},{"inputs":[],"name":"returnApproved","outputs":[{"internalType":"bool","name":"","type":"bool"}],"stateMutability":"view","type":"function"},{"inputs":[],"name":"withdraw","outputs":[{"internalType":"bool","name":"","type":"bool"}],"stateMutability":"nonpayable","type":"function"}],"bytecode":"608060405234801561001057600080fd5b5060405161081338038061081383398101604081905261002f9161010d565b815161004290600290602085019061005e565b5060035550600080546001600160a01b0319163317905561021f565b82805461006a906101e5565b90600052602060002090601f01602090048101928261008c57600085556100d2565b82601f106100a557805160ff19168380011785556100d2565b828001600101855582156100d2579182015b828111156100d25782518255916020019190600101906100b7565b506100de9291506100e2565b5090565b5b808211156100de57600081556001016100e3565b634e487b7160e01b600052604160045260246000fd5b6000806040838503121561012057600080fd5b82516001600160401b038082111561013757600080fd5b818501915085601f83011261014b57600080fd5b81518181111561015d5761015d6100f7565b604051601f8201601f19908116603f01168101908382118183101715610185576101856100f7565b816040528281526020935088848487010111156101a157600080fd5b600091505b828210156101c357848201840151818301850152908301906101a6565b828211156101d45760008484830101525b969092015195979596505050505050565b600181811c908216806101f957607f821691505b60208210810361021957634e487b7160e01b600052602260045260246000fd5b50919050565b6105e58061022e6000396000f3fe60806040526004361061009c5760003560e01c80638d1ce630116100645780638d1ce6301461015e5780638da5cb5b1461017d5780639497d3ae1461019d5780639ada9b7b146101b3578063ad70c2ef146101bd578063d9188a4a146101d257600080fd5b80633ccfd60b146100a15780635a9b9ed8146100cb5780637150d8ae146100e05780637f7650eb146101185780638b7afe2e1461013a575b600080fd5b3480156100ad57600080fd5b506100b66101ec565b60405190151581526020015b60405180910390f35b3480156100d757600080fd5b506100b66102a0565b3480156100ec57600080fd5b50600154610100906001600160a01b031681565b6040516001600160a01b0390911681526020016100c2565b34801561012457600080fd5b5061012d61033c565b6040516100c291906104fa565b34801561014657600080fd5b5061015060045481565b6040519081526020016100c2565b34801561016a57600080fd5b506005546100b690610100900460ff1681565b34801561018957600080fd5b50600054610100906001600160a01b031681565b3480156101a957600080fd5b5061015060035481565b6101bb6103ca565b005b3480156101c957600080fd5b506100b6610464565b3480156101de57600080fd5b506005546100b69060ff1681565b600554600090610100900460ff16801561021057506001546001600160a01b031633145b1561024d5760405133904780156108fc02916000818181858888f19350505050158015610241573d6000803e3d6000fd5b50506000600455600190565b60055460ff16801561026957506000546001600160a01b031633145b1561029a5760405133904780156108fc02916000818181858888f19350505050158015610241573d6000803e3d6000fd5b50600090565b6001546000906001600160a01b031633146103285760405162461bcd60e51b815260206004820152603860248201527f4f6e6c79207468652062757965722063616e20617070726f766520746865207260448201527f6563657074696f6e206f66207468652070726f647563742e000000000000000060648201526084015b60405180910390fd5b506005805460ff1916600190811790915590565b600280546103499061054f565b80601f01602080910402602001604051908101604052809291908181526020018280546103759061054f565b80156103c25780601f10610397576101008083540402835291602001916103c2565b820191906000526020600020905b8154815290600101906020018083116103a557829003601f168201915b505050505081565b60035434146104365760405162461bcd60e51b815260206004820152603260248201527f5472616e73616374696f6e2076616c756520646f6573206e6f7420657175616c60448201527110383934b1b29037b310383937b23ab1ba1760711b606482015260840161031f565b600180546001600160a01b031916331790556004805434919060009061045d908490610589565b9091555050565b600080546001600160a01b031633146104de5760405162461bcd60e51b815260206004820152603660248201527f4f6e6c79207468652073656c6c65722063616e20617070726f766520746865206044820152753932ba3ab9371037b3103a343290383937b23ab1ba1760511b606482015260840161031f565b506005805461ff00191661010090811791829055900460ff1690565b600060208083528351808285015260005b818110156105275785810183015185820160400152820161050b565b81811115610539576000604083870101525b50601f01601f1916929092016040019392505050565b600181811c9082168061056357607f821691505b60208210810361058357634e487b7160e01b600052602260045260246000fd5b50919050565b600082198211156105aa57634e487b7160e01b600052601160045260246000fd5b50019056fea26469706673582212209623f3607a74d5cddc770e0dadd21000dbb855b4eb8793fd61212cc447449b6264736f6c634300080e0033","bytecodeSha1":"ca711cc1048637de451f83d9e590a20feb24f78b","compiler":{"evm_version":"istanbul","optimizer":{"enabled":true,"runs":200},"version":"0.8.14+commit.80d49f37"},"contractName":"ProductTrade","language":"Solidity","natspec":{"kind":"dev","methods":{},"version":1},"opcodes":"PUSH1 0x80 PUSH1 0x40 MSTORE PUSH1 0x4 CALLDATASIZE LT PUSH2 0x9C JUMPI PUSH1 0x0 CALLDATALOAD PUSH1 0xE0 SHR DUP1 PUSH4 0x8D1CE630 GT PUSH2 0x64 JUMPI DUP1 PUSH4 0x8D1CE630 EQ PUSH2 0x15E JUMPI DUP1 PUSH4 0x8DA5CB5B EQ PUSH2 0x17D JUMPI DUP1 PUSH4 0x9497D3AE EQ PUSH2 0x19D JUMPI DUP1 PUSH4 0x9ADA9B7B EQ PUSH2 0x1B3 JUMPI DUP1 PUSH4 0xAD70C2EF EQ PUSH2 0x1BD JUMPI DUP1 PUSH4 0xD9188A4A EQ PUSH2 0x1D2 JUMPI PUSH1 0x0 DUP1 REVERT JUMPDEST DUP1 PUSH4 0x3CCFD60B EQ PUSH2 0xA1 JUMPI DUP1 PUSH4 0x5A9B9ED8 EQ PUSH2 0xCB JUMPI DUP1 PUSH4 0x7150D8AE EQ PUSH2 0xE0 JUMPI DUP1 PUSH4 0x7F7650EB EQ PUSH2 0x118 JUMPI DUP1 PUSH4 0x8B7AFE2E EQ PUSH2 0x13A JUMPI JUMPDEST PUSH1 0x0 DUP1 REVERT JUMPDEST CALLVALUE DUP1 ISZERO PUSH2 0xAD JUMPI PUSH1 0x0 DUP1 REVERT JUMPDEST POP PUSH2 0xB6 PUSH2 0x1EC JUMP JUMPDEST PUSH1 0x40 MLOAD SWAP1 ISZERO ISZERO DUP2 MSTORE PUSH1 0x20 ADD JUMPDEST PUSH1 0x40 MLOAD DUP1 SWAP2 SUB SWAP1 RETURN JUMPDEST CALLVALUE DUP1 ISZERO PUSH2 0xD7 JUMPI PUSH1 0x0 DUP1 REVERT JUMPDEST POP PUSH2 0xB6 PUSH2 0x2A0 JUMP JUMPDEST CALLVALUE DUP1 ISZERO PUSH2 0xEC JUMPI PUSH1 0x0 DUP1 REVERT JUMPDEST POP PUSH1 0x1 SLOAD PUSH2 0x100 SWAP1 PUSH1 0x1 PUSH1 0x1 PUSH1 0xA0 SHL SUB AND DUP2 JUMP JUMPDEST PUSH1 0x40 MLOAD PUSH1 0x1 PUSH1 0x1 PUSH1 0xA0 SHL SUB SWAP1 SWAP2 AND DUP2 MSTORE PUSH1 0x20 ADD PUSH2 0xC2 JUMP JUMPDEST CALLVALUE DUP1 ISZERO PUSH2 0x124 JUMPI PUSH1 0x0 DUP1 REVERT JUMPDEST POP PUSH2 0x12D PUSH2 0x33C JUMP JUMPDEST PUSH1 0x40 MLOAD PUSH2 0xC2 SWAP2 SWAP1 PUSH2 0x4FA JUMP JUMPDEST CALLVALUE DUP1 ISZERO PUSH2 0x146 JUMPI PUSH1 0x0 DUP1 REVERT JUMPDEST POP PUSH2 0x150 PUSH1 0x4 SLOAD DUP2 JUMP JUMPDEST PUSH1 0x40 MLOAD SWAP1 DUP2 MSTORE PUSH1 0x20 ADD PUSH2 0xC2 JUMP JUMPDEST CALLVALUE DUP1 ISZERO PUSH2 0x16A JUMPI PUSH1 0x0 DUP1 REVERT JUMPDEST POP PUSH1 0x5 SLOAD PUSH2 0xB6 SWAP1 PUSH2 0x100 SWAP1 DIV PUSH1 0xFF AND DUP2 JUMP JUMPDEST CALLVALUE DUP1 ISZERO PUSH2 0x189 JUMPI PUSH1 0x0 DUP1 REVERT JUMPDEST POP PUSH1 0x0 SLOAD PUSH2 0x100 SWAP1 PUSH1 0x1 PUSH1 0x1 PUSH1 0xA0 SHL SUB AND DUP2 JUMP JUMPDEST CALLVALUE DUP1 ISZERO PUSH2 0x1A9 JUMPI PUSH1 0x0 DUP1 REVERT JUMPDEST POP PUSH2 0x150 PUSH1 0x3 SLOAD DUP2 JUMP JUMPDEST PUSH2 0x1BB PUSH2 0x3CA JUMP JUMPDEST STOP JUMPDEST CALLVALUE DUP1 ISZERO PUSH2 0x1C9 JUMPI PUSH1 0x0 DUP1 REVERT JUMPDEST POP PUSH2 0xB6 PUSH2 0x464 JUMP JUMPDEST CALLVALUE DUP1 ISZERO PUSH2 0x1DE JUMPI PUSH1 0x0 DUP1 REVERT JUMPDEST POP PUSH1 0x5 SLOAD PUSH2 0xB6 SWAP1 PUSH1 0xFF AND DUP2 JUMP JUMPDEST PUSH1 0x5 SLOAD PUSH1 0x0 SWAP1 PUSH2 0x100 SWAP1 DIV PUSH1 0xFF AND DUP1 ISZERO PUSH2 0x210 JUMPI POP PUSH1 0x1 SLOAD PUSH1 0x1 PUSH1 0x1 PUSH1 0xA0 SHL SUB AND CALLER EQ JUMPDEST ISZERO PUSH2 0x24D JUMPI PUSH1 0x40 MLOAD CALLER SWAP1 SELFBALANCE DUP1 ISZERO PUSH2 0x8FC MUL SWAP2 PUSH1 0x0 DUP2 DUP2 DUP2 DUP6 DUP9 DUP9 CALL SWAP4 POP POP POP POP ISZERO DUP1 ISZERO PUSH2 0x241 JUMPI RETURNDATASIZE PUSH1 0x0 DUP1 RETURNDATACOPY RETURNDATASIZE PUSH1 0x0 REVERT JUMPDEST POP POP PUSH1 0x0 PUSH1 0x4 SSTORE PUSH1 0x1 SWAP1 JUMP JUMPDEST PUSH1 0x5 SLOAD PUSH1 0xFF AND DUP1 ISZERO PUSH2 0x269 JUMPI POP PUSH1 0x0 SLOAD PUSH1 0x1 PUSH1 0x1 PUSH1 0xA0 SHL SUB AND CALLER EQ JUMPDEST ISZERO PUSH2 0x29A JUMPI PUSH1 0x40 MLOAD CALLER SWAP1 SELFBALANCE DUP1 ISZERO PUSH2 0x8FC MUL SWAP2 PUSH1 0x0 DUP2 DUP2 DUP2 DUP6 DUP9 DUP9 CALL SWAP4 POP POP POP POP ISZERO DUP1 ISZERO PUSH2 0x241 JUMPI RETURNDATASIZE PUSH1 0x0 DUP1 RETURNDATACOPY RETURNDATASIZE PUSH1 0x0 REVERT JUMPDEST POP PUSH1 0x0 SWAP1 JUMP JUMPDEST PUSH1 0x1 SLOAD PUSH1 0x0 SWAP1 PUSH1 0x1 PUSH1 0x1 PUSH1 0xA0 SHL SUB AND CALLER EQ PUSH2 0x328 JUMPI PUSH1 0x40 MLOAD PUSH3 0x461BCD PUSH1 0xE5 SHL DUP2 MSTORE PUSH1 0x20 PUSH1 0x4 DUP3 ADD MSTORE PUSH1 0x38 PUSH1 0x24 DUP3 ADD MSTORE PUSH32 0x4F6E6C79207468652062757965722063616E20617070726F7665207468652072 PUSH1 0x44 DUP3 ADD MSTORE PUSH32 0x6563657074696F6E206F66207468652070726F647563742E0000000000000000 PUSH1 0x64 DUP3 ADD MSTORE PUSH1 0x84 ADD JUMPDEST PUSH1 0x40 MLOAD DUP1 SWAP2 SUB SWAP1 REVERT JUMPDEST POP PUSH1 0x5 DUP1 SLOAD PUSH1 0xFF NOT AND PUSH1 0x1 SWAP1 DUP2 OR SWAP1 SWAP2 SSTORE SWAP1 JUMP JUMPDEST PUSH1 0x2 DUP1 SLOAD PUSH2 0x349 SWAP1 PUSH2 0x54F JUMP JUMPDEST DUP1 PUSH1 0x1F ADD PUSH1 0x20 DUP1 SWAP2 DIV MUL PUSH1 0x20 ADD PUSH1 0x40 MLOAD SWAP1 DUP2 ADD PUSH1 0x40 MSTORE DUP1 SWAP3 SWAP2 SWAP1 DUP2 DUP2 MSTORE PUSH1 0x20 ADD DUP3 DUP1 SLOAD PUSH2 0x375 SWAP1 PUSH2 0x54F JUMP JUMPDEST DUP1 ISZERO PUSH2 0x3C2 JUMPI DUP1 PUSH1 0x1F LT PUSH2 0x397 JUMPI PUSH2 0x100 DUP1 DUP4 SLOAD DIV MUL DUP4 MSTORE SWAP2 PUSH1 0x20 ADD SWAP2 PUSH2 0x3C2 JUMP JUMPDEST DUP3 ADD SWAP2 SWAP1 PUSH1 0x0 MSTORE PUSH1 0x20 PUSH1 0x0 KECCAK256 SWAP1 JUMPDEST DUP2 SLOAD DUP2 MSTORE SWAP1 PUSH1 0x1 ADD SWAP1 PUSH1 0x20 ADD DUP1 DUP4 GT PUSH2 0x3A5 JUMPI DUP3 SWAP1 SUB PUSH1 0x1F AND DUP3 ADD SWAP2 JUMPDEST POP POP POP POP POP DUP2 JUMP JUMPDEST PUSH1 0x3 SLOAD CALLVALUE EQ PUSH2 0x436 JUMPI PUSH1 0x40 MLOAD PUSH3 0x461BCD PUSH1 0xE5 SHL DUP2 MSTORE PUSH1 0x20 PUSH1 0x4 DUP3 ADD MSTORE PUSH1 0x32 PUSH1 0x24 DUP3 ADD MSTORE PUSH32 0x5472616E73616374696F6E2076616C756520646F6573206E6F7420657175616C PUSH1 0x44 DUP3 ADD MSTORE PUSH18 0x10383934B1B29037B310383937B23AB1BA17 PUSH1 0x71 SHL PUSH1 0x64 DUP3 ADD MSTORE PUSH1 0x84 ADD PUSH2 0x31F JUMP JUMPDEST PUSH1 0x1 DUP1 SLOAD PUSH1 0x1 PUSH1 0x1 PUSH1 0xA0 SHL SUB NOT AND CALLER OR SWAP1 SSTORE PUSH1 0x4 DUP1 SLOAD CALLVALUE SWAP2 SWAP1 PUSH1 0x0 SWAP1 PUSH2 0x45D SWAP1 DUP5 SWAP1 PUSH2 0x589 JUMP JUMPDEST SWAP1 SWAP2 SSTORE POP POP JUMP JUMPDEST PUSH1 0x0 DUP1 SLOAD PUSH1 0x1 PUSH1 0x1 PUSH1 0xA0 SHL SUB AND CALLER EQ PUSH2 0x4DE JUMPI PUSH1 0x40 MLOAD PUSH3 0x461BCD PUSH1 0xE5 SHL DUP2 MSTORE PUSH1 0x20 PUSH1 0x4 DUP3 ADD MSTORE PUSH1 0x36 PUSH1 0x24 DUP3 ADD MSTORE PUSH32 0x4F6E6C79207468652073656C6C65722063616E20617070726F76652074686520 PUSH1 0x44 DUP3 ADD MSTORE PUSH22 0x3932BA3AB9371037B3103A343290383937B23AB1BA17 PUSH1 0x51 SHL PUSH1 0x64 DUP3 ADD MSTORE PUSH1 0x84 ADD PUSH2 0x31F JUMP JUMPDEST POP PUSH1 0x5 DUP1 SLOAD PUSH2 0xFF00 NOT AND PUSH2 0x100 SWAP1 DUP2 OR SWAP2 DUP3 SWAP1 SSTORE SWAP1 DIV PUSH1 0xFF AND SWAP1 JUMP JUMPDEST PUSH1 0x0 PUSH1 0x20 DUP1 DUP4 MSTORE DUP4 MLOAD DUP1 DUP3 DUP6 ADD MSTORE PUSH1 0x0 JUMPDEST DUP2 DUP2 LT ISZERO PUSH2 0x527 JUMPI DUP6 DUP2 ADD DUP4 ADD MLOAD DUP6 DUP3 ADD PUSH1 0x40 ADD MSTORE DUP3 ADD PUSH2 0x50B JUMP JUMPDEST DUP2 DUP2 GT ISZERO PUSH2 0x539 JUMPI PUSH1 0x0 PUSH1 0x40 DUP4 DUP8 ADD ADD MSTORE JUMPDEST POP PUSH1 0x1F ADD PUSH1 0x1F NOT AND SWAP3 SWAP1 SWAP3 ADD PUSH1 0x40 ADD SWAP4 SWAP3 POP POP POP JUMP JUMPDEST PUSH1 0x1 DUP2 DUP2 SHR SWAP1 DUP3 AND DUP1 PUSH2 0x563 JUMPI PUSH1 0x7F DUP3 AND SWAP2 POP JUMPDEST PUSH1 0x20 DUP3 LT DUP2 SUB PUSH2 0x583 JUMPI PUSH4 0x4E487B71 PUSH1 0xE0 SHL PUSH1 0x0 MSTORE PUSH1 0x22 PUSH1 0x4 MSTORE PUSH1 0x24 PUSH1 0x0 REVERT JUMPDEST POP SWAP2 SWAP1 POP JUMP JUMPDEST PUSH1 0x0 DUP3 NOT DUP3 GT ISZERO PUSH2 0x5AA JUMPI PUSH4 0x4E487B71 PUSH1 0xE0 SHL PUSH1 0x0 MSTORE PUSH1 0x11 PUSH1 0x4 MSTORE PUSH1 0x24 PUSH1 0x0 REVERT JUMPDEST POP ADD SWAP1 JUMP INVALID LOG2 PUSH5 0x6970667358 0x22 SLT KECCAK256 SWAP7 0x23 RETURN PUSH1 0x7A PUSH21 0xD5CDDC770E0DADD21000DBB855B4EB8793FD61212C 0xC4 SELFBALANCE DIFFICULTY SWAP12 PUSH3 0x64736F PUSH13 0x634300080E0033000000000000 ","sha1":"a87be00b042c5bb3e2d0e86e303f6e06bbe93cfb","source":"// SPDX-License-Identifier: MIT\n\npragma solidity ^0.8.0;\n\ncontract ProductTrade {\n    address public owner;\n    address public buyer;\n    string public productName;\n    uint256 public productPrice;\n    uint256 public contractBalance;\n    bool public receptionApproved;\n    bool public returnApproved;\n\n    constructor(string memory _productName, uint256 _productPrice) {\n        productName = _productName;\n        productPrice = _productPrice;\n        owner = msg.sender;\n    }\n\n    function buyProduct() public payable {\n        require(\n            msg.value == productPrice,\n            \"Transaction value does not equal price of product.\"\n        ); // Ensure that the buyer does not purchase the product for the wrong price.\n        buyer = msg.sender;\n        contractBalance += msg.value;\n    }\n\n    function approveReception() public returns (bool) {\n        require(\n            msg.sender == buyer,\n            \"Only the buyer can approve the reception of the product.\"\n        );\n        receptionApproved = true;\n        return receptionApproved;\n    }\n\n    function approveReturn() public returns (bool) {\n        require(\n            msg.sender == owner,\n            \"Only the seller can approve the return of the product.\"\n        );\n        returnApproved = true;\n        return returnApproved;\n    }\n\n    function withdraw() public returns (bool) {\n        if (returnApproved && msg.sender == buyer) {\n            payable(msg.sender).transfer(address(this).balance);\n            contractBalance = 0;\n            return true;\n        } else if (receptionApproved && msg.sender == owner) {\n            payable(msg.sender).transfer(address(this).balance);\n            contractBalance = 0;\n            return true;\n        }\n        return false;\n    }\n}\n","sourcePath":"contracts/ProductTrade.sol","type":"contract","deployment":{"address":"0x96AecfFE09e854d598617b8f11e44b366A9faA8c","chainid":"3","blockHeight":12391394}}