{"abi":[{"inputs":[{"internalType":"string","name":"_productName","type":"string"},{"internalType":"uint256","name":"_productPrice","type":"uint256"}],"stateMutability":"nonpayable","type":"constructor","name":"constructor"},{"inputs":[],"name":"buyProduct","outputs":[],"stateMutability":"payable","type":"function"},{"inputs":[],"name":"buyer","outputs":[{"internalType":"address","name":"","type":"address"}],"stateMutability":"view","type":"function"},{"inputs":[],"name":"contractBalance","outputs":[{"internalType":"uint256","name":"","type":"uint256"}],"stateMutability":"view","type":"function"},{"inputs":[],"name":"owner","outputs":[{"internalType":"address","name":"","type":"address"}],"stateMutability":"view","type":"function"},{"inputs":[],"name":"productName","outputs":[{"internalType":"string","name":"","type":"string"}],"stateMutability":"view","type":"function"},{"inputs":[],"name":"productPrice","outputs":[{"internalType":"uint256","name":"","type":"uint256"}],"stateMutability":"view","type":"function"}],"bytecode":"608060405234801561001057600080fd5b5060405161056238038061056283398101604081905261002f9161010d565b815161004290600290602085019061005e565b5060035550600080546001600160a01b0319163317905561021f565b82805461006a906101e5565b90600052602060002090601f01602090048101928261008c57600085556100d2565b82601f106100a557805160ff19168380011785556100d2565b828001600101855582156100d2579182015b828111156100d25782518255916020019190600101906100b7565b506100de9291506100e2565b5090565b5b808211156100de57600081556001016100e3565b634e487b7160e01b600052604160045260246000fd5b6000806040838503121561012057600080fd5b82516001600160401b038082111561013757600080fd5b818501915085601f83011261014b57600080fd5b81518181111561015d5761015d6100f7565b604051601f8201601f19908116603f01168101908382118183101715610185576101856100f7565b816040528281526020935088848487010111156101a157600080fd5b600091505b828210156101c357848201840151818301850152908301906101a6565b828211156101d45760008484830101525b969092015195979596505050505050565b600181811c908216806101f957607f821691505b60208210810361021957634e487b7160e01b600052602260045260246000fd5b50919050565b6103348061022e6000396000f3fe6080604052600436106100555760003560e01c80637150d8ae1461005a5780637f7650eb146100975780638b7afe2e146100b95780638da5cb5b146100dd5780639497d3ae146100fd5780639ada9b7b14610113575b600080fd5b34801561006657600080fd5b5060015461007a906001600160a01b031681565b6040516001600160a01b0390911681526020015b60405180910390f35b3480156100a357600080fd5b506100ac61011d565b60405161008e9190610249565b3480156100c557600080fd5b506100cf60045481565b60405190815260200161008e565b3480156100e957600080fd5b5060005461007a906001600160a01b031681565b34801561010957600080fd5b506100cf60035481565b61011b6101ab565b005b6002805461012a9061029e565b80601f01602080910402602001604051908101604052809291908181526020018280546101569061029e565b80156101a35780601f10610178576101008083540402835291602001916101a3565b820191906000526020600020905b81548152906001019060200180831161018657829003601f168201915b505050505081565b600354341461021b5760405162461bcd60e51b815260206004820152603260248201527f5472616e73616374696f6e2076616c756520646f6573206e6f7420657175616c60448201527110383934b1b29037b310383937b23ab1ba1760711b606482015260840160405180910390fd5b600180546001600160a01b03191633179055600480543491906000906102429084906102d8565b9091555050565b600060208083528351808285015260005b818110156102765785810183015185820160400152820161025a565b81811115610288576000604083870101525b50601f01601f1916929092016040019392505050565b600181811c908216806102b257607f821691505b6020821081036102d257634e487b7160e01b600052602260045260246000fd5b50919050565b600082198211156102f957634e487b7160e01b600052601160045260246000fd5b50019056fea2646970667358221220cd316d0e4cc596d66e75bef5cb83a779b50b3b76c67c89e77ff0269d8a8c9f4a64736f6c634300080e0033","bytecodeSha1":"b162988c3f727cdd412ffc29267b654178985c9c","compiler":{"evm_version":"istanbul","optimizer":{"enabled":true,"runs":200},"version":"0.8.14+commit.80d49f37"},"contractName":"ProductTrade","language":"Solidity","natspec":{"kind":"dev","methods":{},"version":1},"opcodes":"PUSH1 0x80 PUSH1 0x40 MSTORE PUSH1 0x4 CALLDATASIZE LT PUSH2 0x55 JUMPI PUSH1 0x0 CALLDATALOAD PUSH1 0xE0 SHR DUP1 PUSH4 0x7150D8AE EQ PUSH2 0x5A JUMPI DUP1 PUSH4 0x7F7650EB EQ PUSH2 0x97 JUMPI DUP1 PUSH4 0x8B7AFE2E EQ PUSH2 0xB9 JUMPI DUP1 PUSH4 0x8DA5CB5B EQ PUSH2 0xDD JUMPI DUP1 PUSH4 0x9497D3AE EQ PUSH2 0xFD JUMPI DUP1 PUSH4 0x9ADA9B7B EQ PUSH2 0x113 JUMPI JUMPDEST PUSH1 0x0 DUP1 REVERT JUMPDEST CALLVALUE DUP1 ISZERO PUSH2 0x66 JUMPI PUSH1 0x0 DUP1 REVERT JUMPDEST POP PUSH1 0x1 SLOAD PUSH2 0x7A SWAP1 PUSH1 0x1 PUSH1 0x1 PUSH1 0xA0 SHL SUB AND DUP2 JUMP JUMPDEST PUSH1 0x40 MLOAD PUSH1 0x1 PUSH1 0x1 PUSH1 0xA0 SHL SUB SWAP1 SWAP2 AND DUP2 MSTORE PUSH1 0x20 ADD JUMPDEST PUSH1 0x40 MLOAD DUP1 SWAP2 SUB SWAP1 RETURN JUMPDEST CALLVALUE DUP1 ISZERO PUSH2 0xA3 JUMPI PUSH1 0x0 DUP1 REVERT JUMPDEST POP PUSH2 0xAC PUSH2 0x11D JUMP JUMPDEST PUSH1 0x40 MLOAD PUSH2 0x8E SWAP2 SWAP1 PUSH2 0x249 JUMP JUMPDEST CALLVALUE DUP1 ISZERO PUSH2 0xC5 JUMPI PUSH1 0x0 DUP1 REVERT JUMPDEST POP PUSH2 0xCF PUSH1 0x4 SLOAD DUP2 JUMP JUMPDEST PUSH1 0x40 MLOAD SWAP1 DUP2 MSTORE PUSH1 0x20 ADD PUSH2 0x8E JUMP JUMPDEST CALLVALUE DUP1 ISZERO PUSH2 0xE9 JUMPI PUSH1 0x0 DUP1 REVERT JUMPDEST POP PUSH1 0x0 SLOAD PUSH2 0x7A SWAP1 PUSH1 0x1 PUSH1 0x1 PUSH1 0xA0 SHL SUB AND DUP2 JUMP JUMPDEST CALLVALUE DUP1 ISZERO PUSH2 0x109 JUMPI PUSH1 0x0 DUP1 REVERT JUMPDEST POP PUSH2 0xCF PUSH1 0x3 SLOAD DUP2 JUMP JUMPDEST PUSH2 0x11B PUSH2 0x1AB JUMP JUMPDEST STOP JUMPDEST PUSH1 0x2 DUP1 SLOAD PUSH2 0x12A SWAP1 PUSH2 0x29E JUMP JUMPDEST DUP1 PUSH1 0x1F ADD PUSH1 0x20 DUP1 SWAP2 DIV MUL PUSH1 0x20 ADD PUSH1 0x40 MLOAD SWAP1 DUP2 ADD PUSH1 0x40 MSTORE DUP1 SWAP3 SWAP2 SWAP1 DUP2 DUP2 MSTORE PUSH1 0x20 ADD DUP3 DUP1 SLOAD PUSH2 0x156 SWAP1 PUSH2 0x29E JUMP JUMPDEST DUP1 ISZERO PUSH2 0x1A3 JUMPI DUP1 PUSH1 0x1F LT PUSH2 0x178 JUMPI PUSH2 0x100 DUP1 DUP4 SLOAD DIV MUL DUP4 MSTORE SWAP2 PUSH1 0x20 ADD SWAP2 PUSH2 0x1A3 JUMP JUMPDEST DUP3 ADD SWAP2 SWAP1 PUSH1 0x0 MSTORE PUSH1 0x20 PUSH1 0x0 KECCAK256 SWAP1 JUMPDEST DUP2 SLOAD DUP2 MSTORE SWAP1 PUSH1 0x1 ADD SWAP1 PUSH1 0x20 ADD DUP1 DUP4 GT PUSH2 0x186 JUMPI DUP3 SWAP1 SUB PUSH1 0x1F AND DUP3 ADD SWAP2 JUMPDEST POP POP POP POP POP DUP2 JUMP JUMPDEST PUSH1 0x3 SLOAD CALLVALUE EQ PUSH2 0x21B JUMPI PUSH1 0x40 MLOAD PUSH3 0x461BCD PUSH1 0xE5 SHL DUP2 MSTORE PUSH1 0x20 PUSH1 0x4 DUP3 ADD MSTORE PUSH1 0x32 PUSH1 0x24 DUP3 ADD MSTORE PUSH32 0x5472616E73616374696F6E2076616C756520646F6573206E6F7420657175616C PUSH1 0x44 DUP3 ADD MSTORE PUSH18 0x10383934B1B29037B310383937B23AB1BA17 PUSH1 0x71 SHL PUSH1 0x64 DUP3 ADD MSTORE PUSH1 0x84 ADD PUSH1 0x40 MLOAD DUP1 SWAP2 SUB SWAP1 REVERT JUMPDEST PUSH1 0x1 DUP1 SLOAD PUSH1 0x1 PUSH1 0x1 PUSH1 0xA0 SHL SUB NOT AND CALLER OR SWAP1 SSTORE PUSH1 0x4 DUP1 SLOAD CALLVALUE SWAP2 SWAP1 PUSH1 0x0 SWAP1 PUSH2 0x242 SWAP1 DUP5 SWAP1 PUSH2 0x2D8 JUMP JUMPDEST SWAP1 SWAP2 SSTORE POP POP JUMP JUMPDEST PUSH1 0x0 PUSH1 0x20 DUP1 DUP4 MSTORE DUP4 MLOAD DUP1 DUP3 DUP6 ADD MSTORE PUSH1 0x0 JUMPDEST DUP2 DUP2 LT ISZERO PUSH2 0x276 JUMPI DUP6 DUP2 ADD DUP4 ADD MLOAD DUP6 DUP3 ADD PUSH1 0x40 ADD MSTORE DUP3 ADD PUSH2 0x25A JUMP JUMPDEST DUP2 DUP2 GT ISZERO PUSH2 0x288 JUMPI PUSH1 0x0 PUSH1 0x40 DUP4 DUP8 ADD ADD MSTORE JUMPDEST POP PUSH1 0x1F ADD PUSH1 0x1F NOT AND SWAP3 SWAP1 SWAP3 ADD PUSH1 0x40 ADD SWAP4 SWAP3 POP POP POP JUMP JUMPDEST PUSH1 0x1 DUP2 DUP2 SHR SWAP1 DUP3 AND DUP1 PUSH2 0x2B2 JUMPI PUSH1 0x7F DUP3 AND SWAP2 POP JUMPDEST PUSH1 0x20 DUP3 LT DUP2 SUB PUSH2 0x2D2 JUMPI PUSH4 0x4E487B71 PUSH1 0xE0 SHL PUSH1 0x0 MSTORE PUSH1 0x22 PUSH1 0x4 MSTORE PUSH1 0x24 PUSH1 0x0 REVERT JUMPDEST POP SWAP2 SWAP1 POP JUMP JUMPDEST PUSH1 0x0 DUP3 NOT DUP3 GT ISZERO PUSH2 0x2F9 JUMPI PUSH4 0x4E487B71 PUSH1 0xE0 SHL PUSH1 0x0 MSTORE PUSH1 0x11 PUSH1 0x4 MSTORE PUSH1 0x24 PUSH1 0x0 REVERT JUMPDEST POP ADD SWAP1 JUMP INVALID LOG2 PUSH5 0x6970667358 0x22 SLT KECCAK256 0xCD BALANCE PUSH14 0xE4CC596D66E75BEF5CB83A779B5 SIGNEXTEND EXTCODESIZE PUSH23 0xC67C89E77FF0269D8A8C9F4A64736F6C634300080E0033 ","sha1":"7431f35ed6e4a1032a6bd238666715d6c9fcb6b2","source":"// SPDX-License-Identifier: MIT\n\npragma solidity ^0.8.0;\n\ncontract ProductTrade {\n    address public owner;\n    address public buyer;\n    string public productName;\n    uint256 public productPrice;\n    uint256 public contractBalance;\n\n    constructor(string memory _productName, uint256 _productPrice) {\n        productName = _productName;\n        productPrice = _productPrice;\n        owner = msg.sender;\n    }\n\n    function buyProduct() public payable {\n        require(\n            msg.value == productPrice,\n            \"Transaction value does not equal price of product.\"\n        ); // Ensure that the buyer does not purchase the product for the wrong price.\n        buyer = msg.sender;\n        contractBalance += msg.value;\n    }\n\n    function approveReception() private view returns (bool) {\n        require(\n            msg.sender == owner,\n            \"Only the buyer can approve the reception of the product.\"\n        );\n        return true; // !!! REMEMBER TO CHANGE THIS VALUE ACCORDINGLY !!!\n    }\n\n    function approveReturn() private view returns (bool) {\n        require(\n            msg.sender == buyer,\n            \"Only the seller can approve the return of the product.\"\n        );\n        return true; // !!! REMEMBER TO CHANGE THIS VALUE ACCORDINGLY !!!\n    }\n\n    function withdraw() private view returns (bool) {}\n}\n","sourcePath":"contracts/ProductTrade.sol","type":"contract","deployment":{"address":"0xc9C2eAF39f98d78b2f44c34FDa4fA3E6C001EF23","chainid":"3","blockHeight":12390870}}