{"abi":[{"inputs":[{"internalType":"string","name":"_productName","type":"string"},{"internalType":"uint256","name":"_productPrice","type":"uint256"}],"stateMutability":"nonpayable","type":"constructor","name":"constructor"},{"inputs":[],"name":"approveReception","outputs":[{"internalType":"bool","name":"","type":"bool"}],"stateMutability":"nonpayable","type":"function"},{"inputs":[],"name":"approveReturn","outputs":[{"internalType":"bool","name":"","type":"bool"}],"stateMutability":"nonpayable","type":"function"},{"inputs":[],"name":"buyProduct","outputs":[],"stateMutability":"payable","type":"function"},{"inputs":[],"name":"buyer","outputs":[{"internalType":"address","name":"","type":"address"}],"stateMutability":"view","type":"function"},{"inputs":[],"name":"contractBalance","outputs":[{"internalType":"uint256","name":"","type":"uint256"}],"stateMutability":"view","type":"function"},{"inputs":[],"name":"owner","outputs":[{"internalType":"address","name":"","type":"address"}],"stateMutability":"view","type":"function"},{"inputs":[],"name":"productName","outputs":[{"internalType":"string","name":"","type":"string"}],"stateMutability":"view","type":"function"},{"inputs":[],"name":"productPrice","outputs":[{"internalType":"uint256","name":"","type":"uint256"}],"stateMutability":"view","type":"function"},{"inputs":[],"name":"receptionApproved","outputs":[{"internalType":"bool","name":"","type":"bool"}],"stateMutability":"view","type":"function"},{"inputs":[],"name":"returnApproved","outputs":[{"internalType":"bool","name":"","type":"bool"}],"stateMutability":"view","type":"function"},{"inputs":[],"name":"startReturn","outputs":[],"stateMutability":"payable","type":"function"},{"inputs":[],"name":"txn_state","outputs":[{"internalType":"enum ProductTrade.TXN_STATE","name":"","type":"uint8"}],"stateMutability":"view","type":"function"},{"inputs":[],"name":"withdraw","outputs":[{"internalType":"bool","name":"","type":"bool"}],"stateMutability":"nonpayable","type":"function"}],"bytecode":"60806040523480156200001157600080fd5b5060405162000a2038038062000a2083398101604081905262000034916200012e565b81516200004990600290602085019062000072565b5060035550600080546001600160a01b031916331790556005805462ff0000191690556200024f565b828054620000809062000213565b90600052602060002090601f016020900481019282620000a45760008555620000ef565b82601f10620000bf57805160ff1916838001178555620000ef565b82800160010185558215620000ef579182015b82811115620000ef578251825591602001919060010190620000d2565b50620000fd92915062000101565b5090565b5b80821115620000fd576000815560010162000102565b634e487b7160e01b600052604160045260246000fd5b600080604083850312156200014257600080fd5b82516001600160401b03808211156200015a57600080fd5b818501915085601f8301126200016f57600080fd5b81518181111562000184576200018462000118565b604051601f8201601f19908116603f01168101908382118183101715620001af57620001af62000118565b81604052828152602093508884848701011115620001cc57600080fd5b600091505b82821015620001f05784820184015181830185015290830190620001d1565b82821115620002025760008484830101525b969092015195979596505050505050565b600181811c908216806200022857607f821691505b6020821081036200024957634e487b7160e01b600052602260045260246000fd5b50919050565b6107c1806200025f6000396000f3fe6080604052600436106100c25760003560e01c80638da5cb5b1161007f5780639ada9b7b116100595780639ada9b7b14610206578063ad70c2ef14610210578063c719642a14610225578063d9188a4a1461022d57600080fd5b80638da5cb5b146101a35780639497d3ae146101c357806394bf5a98146101d957600080fd5b80633ccfd60b146100c75780635a9b9ed8146100f15780637150d8ae146101065780637f7650eb1461013e5780638b7afe2e146101605780638d1ce63014610184575b600080fd5b3480156100d357600080fd5b506100dc610247565b60405190151581526020015b60405180910390f35b3480156100fd57600080fd5b506100dc61030c565b34801561011257600080fd5b50600154610126906001600160a01b031681565b6040516001600160a01b0390911681526020016100e8565b34801561014a57600080fd5b506101536103d0565b6040516100e89190610698565b34801561016c57600080fd5b5061017660045481565b6040519081526020016100e8565b34801561019057600080fd5b506005546100dc90610100900460ff1681565b3480156101af57600080fd5b50600054610126906001600160a01b031681565b3480156101cf57600080fd5b5061017660035481565b3480156101e557600080fd5b506005546101f99062010000900460ff1681565b6040516100e89190610703565b61020e61045e565b005b34801561021c57600080fd5b506100dc610580565b61020e610640565b34801561023957600080fd5b506005546100dc9060ff1681565b600554600090610100900460ff16801561026b57506001546001600160a01b031633145b156102b95760405133904780156108fc02916000818181858888f1935050505015801561029c573d6000803e3d6000fd5b505060006004556005805462ff0000191662030000179055600190565b60055460ff1680156102d557506000546001600160a01b031633145b156103065760405133904780156108fc02916000818181858888f1935050505015801561029c573d6000803e3d6000fd5b50600090565b6000600160055462010000900460ff16600381111561032d5761032d6106ed565b1461033757600080fd5b6001546001600160a01b031633146103bc5760405162461bcd60e51b815260206004820152603860248201527f4f6e6c79207468652062757965722063616e20617070726f766520746865207260448201527f6563657074696f6e206f66207468652070726f647563742e000000000000000060648201526084015b60405180910390fd5b506005805460ff1916600190811790915590565b600280546103dd9061072b565b80601f01602080910402602001604051908101604052809291908181526020018280546104099061072b565b80156104565780601f1061042b57610100808354040283529160200191610456565b820191906000526020600020905b81548152906001019060200180831161043957829003601f168201915b505050505081565b600060055462010000900460ff16600381111561047d5761047d6106ed565b146104ca5760405162461bcd60e51b815260206004820152601860248201527f4974656d206973206e6f7420757020666f722073616c652e000000000000000060448201526064016103b3565b6003543410156105395760405162461bcd60e51b815260206004820152603460248201527f5472616e73616374696f6e2076616c756520746f6f206c6f7720666f722070756044820152733931b430b9b29037b3103a3434b99034ba32b69760611b60648201526084016103b3565b600180546001600160a01b0319163317905560048054349190600090610560908490610765565b9091555050600580546001919062ff0000191662010000835b0217905550565b6000600260055462010000900460ff1660038111156105a1576105a16106ed565b146105ab57600080fd5b6000546001600160a01b031633146106245760405162461bcd60e51b815260206004820152603660248201527f4f6e6c79207468652073656c6c65722063616e20617070726f766520746865206044820152753932ba3ab9371037b3103a343290383937b23ab1ba1760511b60648201526084016103b3565b506005805461ff00191661010090811791829055900460ff1690565b6001546001600160a01b0316331461065757600080fd5b600160055462010000900460ff166003811115610676576106766106ed565b1461068057600080fd5b600580546002919062ff000019166201000083610579565b600060208083528351808285015260005b818110156106c5578581018301518582016040015282016106a9565b818111156106d7576000604083870101525b50601f01601f1916929092016040019392505050565b634e487b7160e01b600052602160045260246000fd5b602081016004831061072557634e487b7160e01b600052602160045260246000fd5b91905290565b600181811c9082168061073f57607f821691505b60208210810361075f57634e487b7160e01b600052602260045260246000fd5b50919050565b6000821982111561078657634e487b7160e01b600052601160045260246000fd5b50019056fea26469706673582212208d885467f26107101417cb88209d3a10d54b57adeadf7e20322feff2d339e64464736f6c634300080e0033","bytecodeSha1":"4673f5ef48714ca0e709ba5c6ed8cfdc7dafb287","compiler":{"evm_version":"istanbul","optimizer":{"enabled":true,"runs":200},"version":"0.8.14+commit.80d49f37"},"contractName":"ProductTrade","language":"Solidity","natspec":{"kind":"dev","methods":{},"version":1},"opcodes":"PUSH1 0x80 PUSH1 0x40 MSTORE PUSH1 0x4 CALLDATASIZE LT PUSH2 0xC2 JUMPI PUSH1 0x0 CALLDATALOAD PUSH1 0xE0 SHR DUP1 PUSH4 0x8DA5CB5B GT PUSH2 0x7F JUMPI DUP1 PUSH4 0x9ADA9B7B GT PUSH2 0x59 JUMPI DUP1 PUSH4 0x9ADA9B7B EQ PUSH2 0x206 JUMPI DUP1 PUSH4 0xAD70C2EF EQ PUSH2 0x210 JUMPI DUP1 PUSH4 0xC719642A EQ PUSH2 0x225 JUMPI DUP1 PUSH4 0xD9188A4A EQ PUSH2 0x22D JUMPI PUSH1 0x0 DUP1 REVERT JUMPDEST DUP1 PUSH4 0x8DA5CB5B EQ PUSH2 0x1A3 JUMPI DUP1 PUSH4 0x9497D3AE EQ PUSH2 0x1C3 JUMPI DUP1 PUSH4 0x94BF5A98 EQ PUSH2 0x1D9 JUMPI PUSH1 0x0 DUP1 REVERT JUMPDEST DUP1 PUSH4 0x3CCFD60B EQ PUSH2 0xC7 JUMPI DUP1 PUSH4 0x5A9B9ED8 EQ PUSH2 0xF1 JUMPI DUP1 PUSH4 0x7150D8AE EQ PUSH2 0x106 JUMPI DUP1 PUSH4 0x7F7650EB EQ PUSH2 0x13E JUMPI DUP1 PUSH4 0x8B7AFE2E EQ PUSH2 0x160 JUMPI DUP1 PUSH4 0x8D1CE630 EQ PUSH2 0x184 JUMPI JUMPDEST PUSH1 0x0 DUP1 REVERT JUMPDEST CALLVALUE DUP1 ISZERO PUSH2 0xD3 JUMPI PUSH1 0x0 DUP1 REVERT JUMPDEST POP PUSH2 0xDC PUSH2 0x247 JUMP JUMPDEST PUSH1 0x40 MLOAD SWAP1 ISZERO ISZERO DUP2 MSTORE PUSH1 0x20 ADD JUMPDEST PUSH1 0x40 MLOAD DUP1 SWAP2 SUB SWAP1 RETURN JUMPDEST CALLVALUE DUP1 ISZERO PUSH2 0xFD JUMPI PUSH1 0x0 DUP1 REVERT JUMPDEST POP PUSH2 0xDC PUSH2 0x30C JUMP JUMPDEST CALLVALUE DUP1 ISZERO PUSH2 0x112 JUMPI PUSH1 0x0 DUP1 REVERT JUMPDEST POP PUSH1 0x1 SLOAD PUSH2 0x126 SWAP1 PUSH1 0x1 PUSH1 0x1 PUSH1 0xA0 SHL SUB AND DUP2 JUMP JUMPDEST PUSH1 0x40 MLOAD PUSH1 0x1 PUSH1 0x1 PUSH1 0xA0 SHL SUB SWAP1 SWAP2 AND DUP2 MSTORE PUSH1 0x20 ADD PUSH2 0xE8 JUMP JUMPDEST CALLVALUE DUP1 ISZERO PUSH2 0x14A JUMPI PUSH1 0x0 DUP1 REVERT JUMPDEST POP PUSH2 0x153 PUSH2 0x3D0 JUMP JUMPDEST PUSH1 0x40 MLOAD PUSH2 0xE8 SWAP2 SWAP1 PUSH2 0x698 JUMP JUMPDEST CALLVALUE DUP1 ISZERO PUSH2 0x16C JUMPI PUSH1 0x0 DUP1 REVERT JUMPDEST POP PUSH2 0x176 PUSH1 0x4 SLOAD DUP2 JUMP JUMPDEST PUSH1 0x40 MLOAD SWAP1 DUP2 MSTORE PUSH1 0x20 ADD PUSH2 0xE8 JUMP JUMPDEST CALLVALUE DUP1 ISZERO PUSH2 0x190 JUMPI PUSH1 0x0 DUP1 REVERT JUMPDEST POP PUSH1 0x5 SLOAD PUSH2 0xDC SWAP1 PUSH2 0x100 SWAP1 DIV PUSH1 0xFF AND DUP2 JUMP JUMPDEST CALLVALUE DUP1 ISZERO PUSH2 0x1AF JUMPI PUSH1 0x0 DUP1 REVERT JUMPDEST POP PUSH1 0x0 SLOAD PUSH2 0x126 SWAP1 PUSH1 0x1 PUSH1 0x1 PUSH1 0xA0 SHL SUB AND DUP2 JUMP JUMPDEST CALLVALUE DUP1 ISZERO PUSH2 0x1CF JUMPI PUSH1 0x0 DUP1 REVERT JUMPDEST POP PUSH2 0x176 PUSH1 0x3 SLOAD DUP2 JUMP JUMPDEST CALLVALUE DUP1 ISZERO PUSH2 0x1E5 JUMPI PUSH1 0x0 DUP1 REVERT JUMPDEST POP PUSH1 0x5 SLOAD PUSH2 0x1F9 SWAP1 PUSH3 0x10000 SWAP1 DIV PUSH1 0xFF AND DUP2 JUMP JUMPDEST PUSH1 0x40 MLOAD PUSH2 0xE8 SWAP2 SWAP1 PUSH2 0x703 JUMP JUMPDEST PUSH2 0x20E PUSH2 0x45E JUMP JUMPDEST STOP JUMPDEST CALLVALUE DUP1 ISZERO PUSH2 0x21C JUMPI PUSH1 0x0 DUP1 REVERT JUMPDEST POP PUSH2 0xDC PUSH2 0x580 JUMP JUMPDEST PUSH2 0x20E PUSH2 0x640 JUMP JUMPDEST CALLVALUE DUP1 ISZERO PUSH2 0x239 JUMPI PUSH1 0x0 DUP1 REVERT JUMPDEST POP PUSH1 0x5 SLOAD PUSH2 0xDC SWAP1 PUSH1 0xFF AND DUP2 JUMP JUMPDEST PUSH1 0x5 SLOAD PUSH1 0x0 SWAP1 PUSH2 0x100 SWAP1 DIV PUSH1 0xFF AND DUP1 ISZERO PUSH2 0x26B JUMPI POP PUSH1 0x1 SLOAD PUSH1 0x1 PUSH1 0x1 PUSH1 0xA0 SHL SUB AND CALLER EQ JUMPDEST ISZERO PUSH2 0x2B9 JUMPI PUSH1 0x40 MLOAD CALLER SWAP1 SELFBALANCE DUP1 ISZERO PUSH2 0x8FC MUL SWAP2 PUSH1 0x0 DUP2 DUP2 DUP2 DUP6 DUP9 DUP9 CALL SWAP4 POP POP POP POP ISZERO DUP1 ISZERO PUSH2 0x29C JUMPI RETURNDATASIZE PUSH1 0x0 DUP1 RETURNDATACOPY RETURNDATASIZE PUSH1 0x0 REVERT JUMPDEST POP POP PUSH1 0x0 PUSH1 0x4 SSTORE PUSH1 0x5 DUP1 SLOAD PUSH3 0xFF0000 NOT AND PUSH3 0x30000 OR SWAP1 SSTORE PUSH1 0x1 SWAP1 JUMP JUMPDEST PUSH1 0x5 SLOAD PUSH1 0xFF AND DUP1 ISZERO PUSH2 0x2D5 JUMPI POP PUSH1 0x0 SLOAD PUSH1 0x1 PUSH1 0x1 PUSH1 0xA0 SHL SUB AND CALLER EQ JUMPDEST ISZERO PUSH2 0x306 JUMPI PUSH1 0x40 MLOAD CALLER SWAP1 SELFBALANCE DUP1 ISZERO PUSH2 0x8FC MUL SWAP2 PUSH1 0x0 DUP2 DUP2 DUP2 DUP6 DUP9 DUP9 CALL SWAP4 POP POP POP POP ISZERO DUP1 ISZERO PUSH2 0x29C JUMPI RETURNDATASIZE PUSH1 0x0 DUP1 RETURNDATACOPY RETURNDATASIZE PUSH1 0x0 REVERT JUMPDEST POP PUSH1 0x0 SWAP1 JUMP JUMPDEST PUSH1 0x0 PUSH1 0x1 PUSH1 0x5 SLOAD PUSH3 0x10000 SWAP1 DIV PUSH1 0xFF AND PUSH1 0x3 DUP2 GT ISZERO PUSH2 0x32D JUMPI PUSH2 0x32D PUSH2 0x6ED JUMP JUMPDEST EQ PUSH2 0x337 JUMPI PUSH1 0x0 DUP1 REVERT JUMPDEST PUSH1 0x1 SLOAD PUSH1 0x1 PUSH1 0x1 PUSH1 0xA0 SHL SUB AND CALLER EQ PUSH2 0x3BC JUMPI PUSH1 0x40 MLOAD PUSH3 0x461BCD PUSH1 0xE5 SHL DUP2 MSTORE PUSH1 0x20 PUSH1 0x4 DUP3 ADD MSTORE PUSH1 0x38 PUSH1 0x24 DUP3 ADD MSTORE PUSH32 0x4F6E6C79207468652062757965722063616E20617070726F7665207468652072 PUSH1 0x44 DUP3 ADD MSTORE PUSH32 0x6563657074696F6E206F66207468652070726F647563742E0000000000000000 PUSH1 0x64 DUP3 ADD MSTORE PUSH1 0x84 ADD JUMPDEST PUSH1 0x40 MLOAD DUP1 SWAP2 SUB SWAP1 REVERT JUMPDEST POP PUSH1 0x5 DUP1 SLOAD PUSH1 0xFF NOT AND PUSH1 0x1 SWAP1 DUP2 OR SWAP1 SWAP2 SSTORE SWAP1 JUMP JUMPDEST PUSH1 0x2 DUP1 SLOAD PUSH2 0x3DD SWAP1 PUSH2 0x72B JUMP JUMPDEST DUP1 PUSH1 0x1F ADD PUSH1 0x20 DUP1 SWAP2 DIV MUL PUSH1 0x20 ADD PUSH1 0x40 MLOAD SWAP1 DUP2 ADD PUSH1 0x40 MSTORE DUP1 SWAP3 SWAP2 SWAP1 DUP2 DUP2 MSTORE PUSH1 0x20 ADD DUP3 DUP1 SLOAD PUSH2 0x409 SWAP1 PUSH2 0x72B JUMP JUMPDEST DUP1 ISZERO PUSH2 0x456 JUMPI DUP1 PUSH1 0x1F LT PUSH2 0x42B JUMPI PUSH2 0x100 DUP1 DUP4 SLOAD DIV MUL DUP4 MSTORE SWAP2 PUSH1 0x20 ADD SWAP2 PUSH2 0x456 JUMP JUMPDEST DUP3 ADD SWAP2 SWAP1 PUSH1 0x0 MSTORE PUSH1 0x20 PUSH1 0x0 KECCAK256 SWAP1 JUMPDEST DUP2 SLOAD DUP2 MSTORE SWAP1 PUSH1 0x1 ADD SWAP1 PUSH1 0x20 ADD DUP1 DUP4 GT PUSH2 0x439 JUMPI DUP3 SWAP1 SUB PUSH1 0x1F AND DUP3 ADD SWAP2 JUMPDEST POP POP POP POP POP DUP2 JUMP JUMPDEST PUSH1 0x0 PUSH1 0x5 SLOAD PUSH3 0x10000 SWAP1 DIV PUSH1 0xFF AND PUSH1 0x3 DUP2 GT ISZERO PUSH2 0x47D JUMPI PUSH2 0x47D PUSH2 0x6ED JUMP JUMPDEST EQ PUSH2 0x4CA JUMPI PUSH1 0x40 MLOAD PUSH3 0x461BCD PUSH1 0xE5 SHL DUP2 MSTORE PUSH1 0x20 PUSH1 0x4 DUP3 ADD MSTORE PUSH1 0x18 PUSH1 0x24 DUP3 ADD MSTORE PUSH32 0x4974656D206973206E6F7420757020666F722073616C652E0000000000000000 PUSH1 0x44 DUP3 ADD MSTORE PUSH1 0x64 ADD PUSH2 0x3B3 JUMP JUMPDEST PUSH1 0x3 SLOAD CALLVALUE LT ISZERO PUSH2 0x539 JUMPI PUSH1 0x40 MLOAD PUSH3 0x461BCD PUSH1 0xE5 SHL DUP2 MSTORE PUSH1 0x20 PUSH1 0x4 DUP3 ADD MSTORE PUSH1 0x34 PUSH1 0x24 DUP3 ADD MSTORE PUSH32 0x5472616E73616374696F6E2076616C756520746F6F206C6F7720666F72207075 PUSH1 0x44 DUP3 ADD MSTORE PUSH20 0x3931B430B9B29037B3103A3434B99034BA32B697 PUSH1 0x61 SHL PUSH1 0x64 DUP3 ADD MSTORE PUSH1 0x84 ADD PUSH2 0x3B3 JUMP JUMPDEST PUSH1 0x1 DUP1 SLOAD PUSH1 0x1 PUSH1 0x1 PUSH1 0xA0 SHL SUB NOT AND CALLER OR SWAP1 SSTORE PUSH1 0x4 DUP1 SLOAD CALLVALUE SWAP2 SWAP1 PUSH1 0x0 SWAP1 PUSH2 0x560 SWAP1 DUP5 SWAP1 PUSH2 0x765 JUMP JUMPDEST SWAP1 SWAP2 SSTORE POP POP PUSH1 0x5 DUP1 SLOAD PUSH1 0x1 SWAP2 SWAP1 PUSH3 0xFF0000 NOT AND PUSH3 0x10000 DUP4 JUMPDEST MUL OR SWAP1 SSTORE POP JUMP JUMPDEST PUSH1 0x0 PUSH1 0x2 PUSH1 0x5 SLOAD PUSH3 0x10000 SWAP1 DIV PUSH1 0xFF AND PUSH1 0x3 DUP2 GT ISZERO PUSH2 0x5A1 JUMPI PUSH2 0x5A1 PUSH2 0x6ED JUMP JUMPDEST EQ PUSH2 0x5AB JUMPI PUSH1 0x0 DUP1 REVERT JUMPDEST PUSH1 0x0 SLOAD PUSH1 0x1 PUSH1 0x1 PUSH1 0xA0 SHL SUB AND CALLER EQ PUSH2 0x624 JUMPI PUSH1 0x40 MLOAD PUSH3 0x461BCD PUSH1 0xE5 SHL DUP2 MSTORE PUSH1 0x20 PUSH1 0x4 DUP3 ADD MSTORE PUSH1 0x36 PUSH1 0x24 DUP3 ADD MSTORE PUSH32 0x4F6E6C79207468652073656C6C65722063616E20617070726F76652074686520 PUSH1 0x44 DUP3 ADD MSTORE PUSH22 0x3932BA3AB9371037B3103A343290383937B23AB1BA17 PUSH1 0x51 SHL PUSH1 0x64 DUP3 ADD MSTORE PUSH1 0x84 ADD PUSH2 0x3B3 JUMP JUMPDEST POP PUSH1 0x5 DUP1 SLOAD PUSH2 0xFF00 NOT AND PUSH2 0x100 SWAP1 DUP2 OR SWAP2 DUP3 SWAP1 SSTORE SWAP1 DIV PUSH1 0xFF AND SWAP1 JUMP JUMPDEST PUSH1 0x1 SLOAD PUSH1 0x1 PUSH1 0x1 PUSH1 0xA0 SHL SUB AND CALLER EQ PUSH2 0x657 JUMPI PUSH1 0x0 DUP1 REVERT JUMPDEST PUSH1 0x1 PUSH1 0x5 SLOAD PUSH3 0x10000 SWAP1 DIV PUSH1 0xFF AND PUSH1 0x3 DUP2 GT ISZERO PUSH2 0x676 JUMPI PUSH2 0x676 PUSH2 0x6ED JUMP JUMPDEST EQ PUSH2 0x680 JUMPI PUSH1 0x0 DUP1 REVERT JUMPDEST PUSH1 0x5 DUP1 SLOAD PUSH1 0x2 SWAP2 SWAP1 PUSH3 0xFF0000 NOT AND PUSH3 0x10000 DUP4 PUSH2 0x579 JUMP JUMPDEST PUSH1 0x0 PUSH1 0x20 DUP1 DUP4 MSTORE DUP4 MLOAD DUP1 DUP3 DUP6 ADD MSTORE PUSH1 0x0 JUMPDEST DUP2 DUP2 LT ISZERO PUSH2 0x6C5 JUMPI DUP6 DUP2 ADD DUP4 ADD MLOAD DUP6 DUP3 ADD PUSH1 0x40 ADD MSTORE DUP3 ADD PUSH2 0x6A9 JUMP JUMPDEST DUP2 DUP2 GT ISZERO PUSH2 0x6D7 JUMPI PUSH1 0x0 PUSH1 0x40 DUP4 DUP8 ADD ADD MSTORE JUMPDEST POP PUSH1 0x1F ADD PUSH1 0x1F NOT AND SWAP3 SWAP1 SWAP3 ADD PUSH1 0x40 ADD SWAP4 SWAP3 POP POP POP JUMP JUMPDEST PUSH4 0x4E487B71 PUSH1 0xE0 SHL PUSH1 0x0 MSTORE PUSH1 0x21 PUSH1 0x4 MSTORE PUSH1 0x24 PUSH1 0x0 REVERT JUMPDEST PUSH1 0x20 DUP2 ADD PUSH1 0x4 DUP4 LT PUSH2 0x725 JUMPI PUSH4 0x4E487B71 PUSH1 0xE0 SHL PUSH1 0x0 MSTORE PUSH1 0x21 PUSH1 0x4 MSTORE PUSH1 0x24 PUSH1 0x0 REVERT JUMPDEST SWAP2 SWAP1 MSTORE SWAP1 JUMP JUMPDEST PUSH1 0x1 DUP2 DUP2 SHR SWAP1 DUP3 AND DUP1 PUSH2 0x73F JUMPI PUSH1 0x7F DUP3 AND SWAP2 POP JUMPDEST PUSH1 0x20 DUP3 LT DUP2 SUB PUSH2 0x75F JUMPI PUSH4 0x4E487B71 PUSH1 0xE0 SHL PUSH1 0x0 MSTORE PUSH1 0x22 PUSH1 0x4 MSTORE PUSH1 0x24 PUSH1 0x0 REVERT JUMPDEST POP SWAP2 SWAP1 POP JUMP JUMPDEST PUSH1 0x0 DUP3 NOT DUP3 GT ISZERO PUSH2 0x786 JUMPI PUSH4 0x4E487B71 PUSH1 0xE0 SHL PUSH1 0x0 MSTORE PUSH1 0x11 PUSH1 0x4 MSTORE PUSH1 0x24 PUSH1 0x0 REVERT JUMPDEST POP ADD SWAP1 JUMP INVALID LOG2 PUSH5 0x6970667358 0x22 SLT KECCAK256 DUP14 DUP9 SLOAD PUSH8 0xF26107101417CB88 KECCAK256 SWAP14 GASPRICE LT 0xD5 0x4B JUMPI 0xAD 0xEA 0xDF PUSH31 0x20322FEFF2D339E64464736F6C634300080E00330000000000000000000000 ","sha1":"de972b7a11354756993e614a5e870bfef68f586e","source":"// SPDX-License-Identifier: MIT\n\npragma solidity ^0.8.0;\n\ncontract ProductTrade {\n    address public owner;\n    address public buyer;\n    string public productName;\n    uint256 public productPrice;\n    uint256 public contractBalance;\n    bool public receptionApproved;\n    bool public returnApproved;\n    TXN_STATE public txn_state;\n\n    constructor(string memory _productName, uint256 _productPrice) {\n        productName = _productName;\n        productPrice = _productPrice;\n        owner = msg.sender;\n        txn_state = TXN_STATE.FOR_SALE;\n    }\n\n    enum TXN_STATE {\n        FOR_SALE,\n        PURCHASED,\n        RETURN,\n        CLOSED\n    }\n\n    function startReturn() public payable {\n        require(msg.sender == buyer);\n        require(txn_state == TXN_STATE.PURCHASED);\n        txn_state = TXN_STATE.RETURN;\n    }\n\n    function buyProduct() public payable {\n        require(txn_state == TXN_STATE.FOR_SALE, \"Item is not up for sale.\");\n        require(\n            msg.value >= productPrice,\n            \"Transaction value too low for purchase of this item.\"\n        ); // Ensure that the buyer does not purchase the product for the wrong price.\n        buyer = msg.sender;\n        contractBalance += msg.value;\n        txn_state = TXN_STATE.PURCHASED;\n    }\n\n    function approveReception() public returns (bool) {\n        require(txn_state == TXN_STATE.PURCHASED);\n        require(\n            msg.sender == buyer,\n            \"Only the buyer can approve the reception of the product.\"\n        );\n        receptionApproved = true;\n        return receptionApproved;\n    }\n\n    function approveReturn() public returns (bool) {\n        require(txn_state == TXN_STATE.RETURN);\n        require(\n            msg.sender == owner,\n            \"Only the seller can approve the return of the product.\"\n        );\n        returnApproved = true;\n        return returnApproved;\n    }\n\n    function withdraw() public returns (bool) {\n        if (returnApproved && msg.sender == buyer) {\n            payable(msg.sender).transfer(address(this).balance);\n            contractBalance = 0;\n            txn_state = TXN_STATE.CLOSED;\n            return true;\n        } else if (receptionApproved && msg.sender == owner) {\n            payable(msg.sender).transfer(address(this).balance);\n            contractBalance = 0;\n            txn_state = TXN_STATE.CLOSED;\n            return true;\n        }\n        return false;\n    }\n}\n","sourcePath":"contracts/ProductTrade.sol","type":"contract","deployment":{"address":"0xf1AED8cA77E748eca020E420b50e9d47CDED4F02","chainid":"3","blockHeight":12404502}}